{
  "abi": [
    {
      "inputs": [
        {
          "internalType": "string",
          "name": "_name",
          "type": "string"
        },
        {
          "internalType": "string",
          "name": "_symbol",
          "type": "string"
        },
        {
          "internalType": "string",
          "name": "_baseURI",
          "type": "string"
        }
      ],
      "stateMutability": "nonpayable",
      "type": "constructor"
    },
    {
      "inputs": [],
      "name": "MaxSupply",
      "type": "error"
    },
    {
      "inputs": [],
      "name": "NonExistentTokenURI",
      "type": "error"
    },
    {
      "anonymous": false,
      "inputs": [
        {
          "indexed": true,
          "internalType": "address",
          "name": "owner",
          "type": "address"
        },
        {
          "indexed": true,
          "internalType": "address",
          "name": "spender",
          "type": "address"
        },
        {
          "indexed": true,
          "internalType": "uint256",
          "name": "id",
          "type": "uint256"
        }
      ],
      "name": "Approval",
      "type": "event"
    },
    {
      "anonymous": false,
      "inputs": [
        {
          "indexed": true,
          "internalType": "address",
          "name": "owner",
          "type": "address"
        },
        {
          "indexed": true,
          "internalType": "address",
          "name": "operator",
          "type": "address"
        },
        {
          "indexed": false,
          "internalType": "bool",
          "name": "approved",
          "type": "bool"
        }
      ],
      "name": "ApprovalForAll",
      "type": "event"
    },
    {
      "anonymous": false,
      "inputs": [
        {
          "indexed": true,
          "internalType": "address",
          "name": "from",
          "type": "address"
        },
        {
          "indexed": true,
          "internalType": "address",
          "name": "to",
          "type": "address"
        },
        {
          "indexed": true,
          "internalType": "uint256",
          "name": "id",
          "type": "uint256"
        }
      ],
      "name": "Transfer",
      "type": "event"
    },
    {
      "inputs": [],
      "name": "TOTAL_SUPPLY",
      "outputs": [
        {
          "internalType": "uint256",
          "name": "",
          "type": "uint256"
        }
      ],
      "stateMutability": "view",
      "type": "function"
    },
    {
      "inputs": [
        {
          "internalType": "address",
          "name": "spender",
          "type": "address"
        },
        {
          "internalType": "uint256",
          "name": "id",
          "type": "uint256"
        }
      ],
      "name": "approve",
      "outputs": [],
      "stateMutability": "nonpayable",
      "type": "function"
    },
    {
      "inputs": [
        {
          "internalType": "address",
          "name": "owner",
          "type": "address"
        }
      ],
      "name": "balanceOf",
      "outputs": [
        {
          "internalType": "uint256",
          "name": "",
          "type": "uint256"
        }
      ],
      "stateMutability": "view",
      "type": "function"
    },
    {
      "inputs": [],
      "name": "baseURI",
      "outputs": [
        {
          "internalType": "string",
          "name": "",
          "type": "string"
        }
      ],
      "stateMutability": "view",
      "type": "function"
    },
    {
      "inputs": [],
      "name": "currentTokenId",
      "outputs": [
        {
          "internalType": "uint256",
          "name": "",
          "type": "uint256"
        }
      ],
      "stateMutability": "view",
      "type": "function"
    },
    {
      "inputs": [
        {
          "internalType": "uint256",
          "name": "",
          "type": "uint256"
        }
      ],
      "name": "getApproved",
      "outputs": [
        {
          "internalType": "address",
          "name": "",
          "type": "address"
        }
      ],
      "stateMutability": "view",
      "type": "function"
    },
    {
      "inputs": [
        {
          "internalType": "address",
          "name": "",
          "type": "address"
        },
        {
          "internalType": "address",
          "name": "",
          "type": "address"
        }
      ],
      "name": "isApprovedForAll",
      "outputs": [
        {
          "internalType": "bool",
          "name": "",
          "type": "bool"
        }
      ],
      "stateMutability": "view",
      "type": "function"
    },
    {
      "inputs": [
        {
          "internalType": "address",
          "name": "recipient",
          "type": "address"
        }
      ],
      "name": "mintTo",
      "outputs": [
        {
          "internalType": "uint256",
          "name": "",
          "type": "uint256"
        }
      ],
      "stateMutability": "payable",
      "type": "function"
    },
    {
      "inputs": [],
      "name": "name",
      "outputs": [
        {
          "internalType": "string",
          "name": "",
          "type": "string"
        }
      ],
      "stateMutability": "view",
      "type": "function"
    },
    {
      "inputs": [
        {
          "internalType": "uint256",
          "name": "id",
          "type": "uint256"
        }
      ],
      "name": "ownerOf",
      "outputs": [
        {
          "internalType": "address",
          "name": "owner",
          "type": "address"
        }
      ],
      "stateMutability": "view",
      "type": "function"
    },
    {
      "inputs": [
        {
          "internalType": "address",
          "name": "from",
          "type": "address"
        },
        {
          "internalType": "address",
          "name": "to",
          "type": "address"
        },
        {
          "internalType": "uint256",
          "name": "id",
          "type": "uint256"
        }
      ],
      "name": "safeTransferFrom",
      "outputs": [],
      "stateMutability": "nonpayable",
      "type": "function"
    },
    {
      "inputs": [
        {
          "internalType": "address",
          "name": "from",
          "type": "address"
        },
        {
          "internalType": "address",
          "name": "to",
          "type": "address"
        },
        {
          "internalType": "uint256",
          "name": "id",
          "type": "uint256"
        },
        {
          "internalType": "bytes",
          "name": "data",
          "type": "bytes"
        }
      ],
      "name": "safeTransferFrom",
      "outputs": [],
      "stateMutability": "nonpayable",
      "type": "function"
    },
    {
      "inputs": [
        {
          "internalType": "address",
          "name": "operator",
          "type": "address"
        },
        {
          "internalType": "bool",
          "name": "approved",
          "type": "bool"
        }
      ],
      "name": "setApprovalForAll",
      "outputs": [],
      "stateMutability": "nonpayable",
      "type": "function"
    },
    {
      "inputs": [
        {
          "internalType": "bytes4",
          "name": "interfaceId",
          "type": "bytes4"
        }
      ],
      "name": "supportsInterface",
      "outputs": [
        {
          "internalType": "bool",
          "name": "",
          "type": "bool"
        }
      ],
      "stateMutability": "view",
      "type": "function"
    },
    {
      "inputs": [],
      "name": "symbol",
      "outputs": [
        {
          "internalType": "string",
          "name": "",
          "type": "string"
        }
      ],
      "stateMutability": "view",
      "type": "function"
    },
    {
      "inputs": [
        {
          "internalType": "uint256",
          "name": "tokenId",
          "type": "uint256"
        }
      ],
      "name": "tokenURI",
      "outputs": [
        {
          "internalType": "string",
          "name": "",
          "type": "string"
        }
      ],
      "stateMutability": "view",
      "type": "function"
    },
    {
      "inputs": [
        {
          "internalType": "address",
          "name": "from",
          "type": "address"
        },
        {
          "internalType": "address",
          "name": "to",
          "type": "address"
        },
        {
          "internalType": "uint256",
          "name": "id",
          "type": "uint256"
        }
      ],
      "name": "transferFrom",
      "outputs": [],
      "stateMutability": "nonpayable",
      "type": "function"
    }
  ],
  "bytecode": {
    "object": "0x60806040523480156200001157600080fd5b50604051620021493803806200214983398101604081905262000034916200013d565b828260006200004483826200025d565b5060016200005382826200025d565b506006915062000066905082826200025d565b5050505062000329565b634e487b7160e01b600052604160045260246000fd5b600082601f8301126200009857600080fd5b81516001600160401b0380821115620000b557620000b562000070565b604051601f8301601f19908116603f01168101908282118183101715620000e057620000e062000070565b81604052838152602092508683858801011115620000fd57600080fd5b600091505b8382101562000121578582018301518183018401529082019062000102565b83821115620001335760008385830101525b9695505050505050565b6000806000606084860312156200015357600080fd5b83516001600160401b03808211156200016b57600080fd5b620001798783880162000086565b945060208601519150808211156200019057600080fd5b6200019e8783880162000086565b93506040860151915080821115620001b557600080fd5b50620001c48682870162000086565b9150509250925092565b600181811c90821680620001e357607f821691505b6020821081036200020457634e487b7160e01b600052602260045260246000fd5b50919050565b601f8211156200025857600081815260208120601f850160051c81016020861015620002335750805b601f850160051c820191505b8181101562000254578281556001016200023f565b5050505b505050565b81516001600160401b0381111562000279576200027962000070565b62000291816200028a8454620001ce565b846200020a565b602080601f831160018114620002c95760008415620002b05750858301515b600019600386901b1c1916600185901b17855562000254565b600085815260208120601f198616915b82811015620002fa57888601518255948401946001909101908401620002d9565b5085821015620003195787850151600019600388901b60f8161c191681555b5050505050600190811b01905550565b611e1080620003396000396000f3fe60806040526004361061010d5760003560e01c80636c0360eb116100a557806395d89b4111610074578063b88d4fde11610059578063b88d4fde14610309578063c87b56dd14610329578063e985e9c51461034957600080fd5b806395d89b41146102d4578063a22cb465146102e957600080fd5b80636c0360eb1461027757806370a082311461028c578063755edd17146102ac578063902d55a5146102bf57600080fd5b8063095ea7b3116100e1578063095ea7b3146101f557806323b872dd1461021757806342842e0e146102375780636352211e1461025757600080fd5b80629a9b7b1461011257806301ffc9a71461013b57806306fdde031461016b578063081812fc1461018d575b600080fd5b34801561011e57600080fd5b5061012860075481565b6040519081526020015b60405180910390f35b34801561014757600080fd5b5061015b61015636600461151e565b610384565b6040519015158152602001610132565b34801561017757600080fd5b50610180610469565b6040516101329190611572565b34801561019957600080fd5b506101d06101a83660046115c3565b60046020526000908152604090205473ffffffffffffffffffffffffffffffffffffffff1681565b60405173ffffffffffffffffffffffffffffffffffffffff9091168152602001610132565b34801561020157600080fd5b50610215610210366004611600565b6104f7565b005b34801561022357600080fd5b5061021561023236600461162a565b610646565b34801561024357600080fd5b5061021561025236600461162a565b61090d565b34801561026357600080fd5b506101d06102723660046115c3565b610a77565b34801561028357600080fd5b50610180610b08565b34801561029857600080fd5b506101286102a7366004611666565b610b15565b6101286102ba366004611666565b610bbd565b3480156102cb57600080fd5b50610128606481565b3480156102e057600080fd5b50610180610c1b565b3480156102f557600080fd5b50610215610304366004611681565b610c28565b34801561031557600080fd5b506102156103243660046116bd565b610cbf565b34801561033557600080fd5b506101806103443660046115c3565b610e19565b34801561035557600080fd5b5061015b610364366004611758565b600560209081526000928352604080842090915290825290205460ff1681565b60007f01ffc9a7000000000000000000000000000000000000000000000000000000007fffffffff000000000000000000000000000000000000000000000000000000008316148061041757507f80ac58cd000000000000000000000000000000000000000000000000000000007fffffffff000000000000000000000000000000000000000000000000000000008316145b8061046357507f5b5e139f000000000000000000000000000000000000000000000000000000007fffffffff000000000000000000000000000000000000000000000000000000008316145b92915050565b600080546104769061178b565b80601f01602080910402602001604051908101604052809291908181526020018280546104a29061178b565b80156104ef5780601f106104c4576101008083540402835291602001916104ef565b820191906000526020600020905b8154815290600101906020018083116104d257829003601f168201915b505050505081565b60008181526002602052604090205473ffffffffffffffffffffffffffffffffffffffff163381148061055a575073ffffffffffffffffffffffffffffffffffffffff8116600090815260056020908152604080832033845290915290205460ff165b6105c5576040517f08c379a000000000000000000000000000000000000000000000000000000000815260206004820152600e60248201527f4e4f545f415554484f52495a454400000000000000000000000000000000000060448201526064015b60405180910390fd5b60008281526004602052604080822080547fffffffffffffffffffffffff00000000000000000000000000000000000000001673ffffffffffffffffffffffffffffffffffffffff87811691821790925591518593918516917f8c5be1e5ebec7d5bd14f71427d1e84f3dd0314c0f7b2291e5b200ac8c7c3b92591a4505050565b60008181526002602052604090205473ffffffffffffffffffffffffffffffffffffffff8481169116146106d6576040517f08c379a000000000000000000000000000000000000000000000000000000000815260206004820152600a60248201527f57524f4e475f46524f4d0000000000000000000000000000000000000000000060448201526064016105bc565b73ffffffffffffffffffffffffffffffffffffffff8216610753576040517f08c379a000000000000000000000000000000000000000000000000000000000815260206004820152601160248201527f494e56414c49445f524543495049454e5400000000000000000000000000000060448201526064016105bc565b3373ffffffffffffffffffffffffffffffffffffffff841614806107a7575073ffffffffffffffffffffffffffffffffffffffff8316600090815260056020908152604080832033845290915290205460ff165b806107d5575060008181526004602052604090205473ffffffffffffffffffffffffffffffffffffffff1633145b61083b576040517f08c379a000000000000000000000000000000000000000000000000000000000815260206004820152600e60248201527f4e4f545f415554484f52495a454400000000000000000000000000000000000060448201526064016105bc565b73ffffffffffffffffffffffffffffffffffffffff808416600081815260036020908152604080832080547fffffffffffffffffffffffffffffffffffffffffffffffffffffffffffffffff019055938616808352848320805460010190558583526002825284832080547fffffffffffffffffffffffff00000000000000000000000000000000000000009081168317909155600490925284832080549092169091559251849392917fddf252ad1be2c89b69c2b068fc378daa952ba7f163c4a11628f55a4df523b3ef91a4505050565b610918838383610646565b73ffffffffffffffffffffffffffffffffffffffff82163b1580610a0c57506040517f150b7a020000000000000000000000000000000000000000000000000000000080825233600483015273ffffffffffffffffffffffffffffffffffffffff858116602484015260448301849052608060648401526000608484015290919084169063150b7a029060a4016020604051808303816000875af11580156109c4573d6000803e3d6000fd5b505050506040513d601f19601f820116820180604052508101906109e891906117de565b7fffffffff0000000000000000000000000000000000000000000000000000000016145b610a72576040517f08c379a000000000000000000000000000000000000000000000000000000000815260206004820152601060248201527f554e534146455f524543495049454e540000000000000000000000000000000060448201526064016105bc565b505050565b60008181526002602052604090205473ffffffffffffffffffffffffffffffffffffffff1680610b03576040517f08c379a000000000000000000000000000000000000000000000000000000000815260206004820152600a60248201527f4e4f545f4d494e5445440000000000000000000000000000000000000000000060448201526064016105bc565b919050565b600680546104769061178b565b600073ffffffffffffffffffffffffffffffffffffffff8216610b94576040517f08c379a000000000000000000000000000000000000000000000000000000000815260206004820152600c60248201527f5a45524f5f41444452455353000000000000000000000000000000000000000060448201526064016105bc565b5073ffffffffffffffffffffffffffffffffffffffff1660009081526003602052604090205490565b600080600760008154610bcf9061182a565b918290555090506064811115610c11576040517fb36c128400000000000000000000000000000000000000000000000000000000815260040160405180910390fd5b6104638382610f5f565b600180546104769061178b565b33600081815260056020908152604080832073ffffffffffffffffffffffffffffffffffffffff87168085529083529281902080547fffffffffffffffffffffffffffffffffffffffffffffffffffffffffffffff001686151590811790915590519081529192917f17307eab39ab6107e8899845ad3d59bd9653f200f220920489ca2b5937696c31910160405180910390a35050565b610cca858585610646565b73ffffffffffffffffffffffffffffffffffffffff84163b1580610dac57506040517f150b7a02000000000000000000000000000000000000000000000000000000008082529073ffffffffffffffffffffffffffffffffffffffff86169063150b7a0290610d459033908a90899089908990600401611862565b6020604051808303816000875af1158015610d64573d6000803e3d6000fd5b505050506040513d601f19601f82011682018060405250810190610d8891906117de565b7fffffffff0000000000000000000000000000000000000000000000000000000016145b610e12576040517f08c379a000000000000000000000000000000000000000000000000000000000815260206004820152601060248201527f554e534146455f524543495049454e540000000000000000000000000000000060448201526064016105bc565b5050505050565b60606000610e2683610a77565b73ffffffffffffffffffffffffffffffffffffffff1603610e73576040517fd872946b00000000000000000000000000000000000000000000000000000000815260040160405180910390fd5b6000604051806080016040528060528152602001611b826052913990506000604051806101c0016040528061018e8152602001611bd461018e913990506000604051806060016040528060398152602001611da26039913990506000838383604051602001610ee4939291906118e1565b60405160208183030381529060405290506000610f31610f03886110c4565b610f0c84611201565b604051602001610f1d929190611924565b604051602081830303815290604052611201565b905080604051602001610f449190611a1b565b60405160208183030381529060405295505050505050919050565b610f698282611354565b73ffffffffffffffffffffffffffffffffffffffff82163b158061105a57506040517f150b7a0200000000000000000000000000000000000000000000000000000000808252336004830152600060248301819052604483018490526080606484015260848301529073ffffffffffffffffffffffffffffffffffffffff84169063150b7a029060a4016020604051808303816000875af1158015611012573d6000803e3d6000fd5b505050506040513d601f19601f8201168201806040525081019061103691906117de565b7fffffffff0000000000000000000000000000000000000000000000000000000016145b6110c0576040517f08c379a000000000000000000000000000000000000000000000000000000000815260206004820152601060248201527f554e534146455f524543495049454e540000000000000000000000000000000060448201526064016105bc565b5050565b60608160000361110757505060408051808201909152600181527f3000000000000000000000000000000000000000000000000000000000000000602082015290565b8160005b8115611131578061111b8161182a565b915061112a9050600a83611a8f565b915061110b565b60008167ffffffffffffffff81111561114c5761114c611aa3565b6040519080825280601f01601f191660200182016040528015611176576020820181803683370190505b5090505b84156111f95761118b600183611ad2565b9150611198600a86611ae9565b6111a3906030611afd565b60f81b8183815181106111b8576111b8611b15565b60200101907effffffffffffffffffffffffffffffffffffffffffffffffffffffffffffff1916908160001a9053506111f2600a86611a8f565b945061117a565b949350505050565b6060815160000361122057505060408051602081019091526000815290565b6000604051806060016040528060408152602001611d62604091399050600060038451600261124f9190611afd565b6112599190611a8f565b611264906004611b44565b67ffffffffffffffff81111561127c5761127c611aa3565b6040519080825280601f01601f1916602001820160405280156112a6576020820181803683370190505b509050600182016020820185865187015b80821015611312576003820191508151603f8160121c168501518453600184019350603f81600c1c168501518453600184019350603f8160061c168501518453600184019350603f81168501518453506001830192506112b7565b505060038651066001811461132e576002811461134157611349565b603d6001830353603d6002830353611349565b603d60018303535b509195945050505050565b73ffffffffffffffffffffffffffffffffffffffff82166113d1576040517f08c379a000000000000000000000000000000000000000000000000000000000815260206004820152601160248201527f494e56414c49445f524543495049454e5400000000000000000000000000000060448201526064016105bc565b60008181526002602052604090205473ffffffffffffffffffffffffffffffffffffffff161561145d576040517f08c379a000000000000000000000000000000000000000000000000000000000815260206004820152600e60248201527f414c52454144595f4d494e54454400000000000000000000000000000000000060448201526064016105bc565b73ffffffffffffffffffffffffffffffffffffffff8216600081815260036020908152604080832080546001019055848352600290915280822080547fffffffffffffffffffffffff0000000000000000000000000000000000000000168417905551839291907fddf252ad1be2c89b69c2b068fc378daa952ba7f163c4a11628f55a4df523b3ef908290a45050565b7fffffffff000000000000000000000000000000000000000000000000000000008116811461151b57600080fd5b50565b60006020828403121561153057600080fd5b813561153b816114ed565b9392505050565b60005b8381101561155d578181015183820152602001611545565b8381111561156c576000848401525b50505050565b6020815260008251806020840152611591816040850160208701611542565b601f017fffffffffffffffffffffffffffffffffffffffffffffffffffffffffffffffe0169190910160400192915050565b6000602082840312156115d557600080fd5b5035919050565b803573ffffffffffffffffffffffffffffffffffffffff81168114610b0357600080fd5b6000806040838503121561161357600080fd5b61161c836115dc565b946020939093013593505050565b60008060006060848603121561163f57600080fd5b611648846115dc565b9250611656602085016115dc565b9150604084013590509250925092565b60006020828403121561167857600080fd5b61153b826115dc565b6000806040838503121561169457600080fd5b61169d836115dc565b9150602083013580151581146116b257600080fd5b809150509250929050565b6000806000806000608086880312156116d557600080fd5b6116de866115dc565b94506116ec602087016115dc565b935060408601359250606086013567ffffffffffffffff8082111561171057600080fd5b818801915088601f83011261172457600080fd5b81358181111561173357600080fd5b89602082850101111561174557600080fd5b9699959850939650602001949392505050565b6000806040838503121561176b57600080fd5b611774836115dc565b9150611782602084016115dc565b90509250929050565b600181811c9082168061179f57607f821691505b6020821081036117d8577f4e487b7100000000000000000000000000000000000000000000000000000000600052602260045260246000fd5b50919050565b6000602082840312156117f057600080fd5b815161153b816114ed565b7f4e487b7100000000000000000000000000000000000000000000000000000000600052601160045260246000fd5b60007fffffffffffffffffffffffffffffffffffffffffffffffffffffffffffffffff820361185b5761185b6117fb565b5060010190565b600073ffffffffffffffffffffffffffffffffffffffff808816835280871660208401525084604083015260806060830152826080830152828460a0840137600060a0848401015260a07fffffffffffffffffffffffffffffffffffffffffffffffffffffffffffffffe0601f85011683010190509695505050505050565b600084516118f3818460208901611542565b845190830190611907818360208901611542565b845191019061191a818360208801611542565b0195945050505050565b7f7b226e616d65223a20224e46542023000000000000000000000000000000000081526000835161195c81600f850160208801611542565b7f222c20226465736372697074696f6e223a202254657374000000000000000000600f918401918201527f222c2022696d6167655f64617461223a2022646174613a696d6167652f73766760268201527f2b786d6c3b6261736536342c0000000000000000000000000000000000000000604682015283516119e5816052840160208801611542565b7f227d00000000000000000000000000000000000000000000000000000000000060529290910191820152605401949350505050565b7f646174613a6170706c69636174696f6e2f6a736f6e3b6261736536342c000000815260008251611a5381601d850160208701611542565b91909101601d0192915050565b7f4e487b7100000000000000000000000000000000000000000000000000000000600052601260045260246000fd5b600082611a9e57611a9e611a60565b500490565b7f4e487b7100000000000000000000000000000000000000000000000000000000600052604160045260246000fd5b600082821015611ae457611ae46117fb565b500390565b600082611af857611af8611a60565b500690565b60008219821115611b1057611b106117fb565b500190565b7f4e487b7100000000000000000000000000000000000000000000000000000000600052603260045260246000fd5b6000817fffffffffffffffffffffffffffffffffffffffffffffffffffffffffffffffff0483118215151615611b7c57611b7c6117fb565b50029056fe3c7376672076696577426f783d2230203020333530203335302220786d6c6e733d22687474703a2f2f7777772e77332e6f72672f323030302f737667223e3c7363726970743e2f2f3c215b43444154415b0a77696e646f772e6164644576656e744c697374656e65722822444f4d436f6e74656e744c6f61646564222c2828293d3e7b646f63756d656e742e717565727953656c6563746f722822636972636c6522292e6164644576656e744c697374656e65722822636c69636b222c28743d3e7b742e7461726765742e7374796c652e66696c6c3d66756e6374696f6e28297b636f6e737420743d4d6174682e726f756e64283235352a4d6174682e72616e646f6d2829292e746f537472696e67283136292e706164537461727428322c223022292c6e3d4d6174682e726f756e64283235352a4d6174682e72616e646f6d2829292e746f537472696e67283136292e706164537461727428322c223022292c723d4d6174682e726f756e64283235352a4d6174682e72616e646f6d2829292e746f537472696e67283136292e706164537461727428322c223022293b72657475726e2223222e636f6e63617428742e746f537472696e6728292c6e2e746f537472696e6728292c722e746f537472696e672829297d28297d29297d29293b4142434445464748494a4b4c4d4e4f505152535455565758595a6162636465666768696a6b6c6d6e6f707172737475767778797a303132333435363738392b2f0a2f2f205d5d3e3c2f7363726970743e3c636972636c652063783d22313735222063793d223137352220723d22313030222f3e3c2f7376673ea2646970667358221220ccafd9ad7bf6e95e7c1e2a3279893a693e8ad6ddb05210defb60edfd56e64f3464736f6c634300080f0033",
    "linkReferences": {}
  },
  "methodIdentifiers": {
    "TOTAL_SUPPLY()": "902d55a5",
    "approve(address,uint256)": "095ea7b3",
    "balanceOf(address)": "70a08231",
    "baseURI()": "6c0360eb",
    "currentTokenId()": "009a9b7b",
    "getApproved(uint256)": "081812fc",
    "isApprovedForAll(address,address)": "e985e9c5",
    "mintTo(address)": "755edd17",
    "name()": "06fdde03",
    "ownerOf(uint256)": "6352211e",
    "safeTransferFrom(address,address,uint256)": "42842e0e",
    "safeTransferFrom(address,address,uint256,bytes)": "b88d4fde",
    "setApprovalForAll(address,bool)": "a22cb465",
    "supportsInterface(bytes4)": "01ffc9a7",
    "symbol()": "95d89b41",
    "tokenURI(uint256)": "c87b56dd",
    "transferFrom(address,address,uint256)": "23b872dd"
  },
  "id": 11
}