{
  "abi": [
    {
      "inputs": [
        {
          "internalType": "string",
          "name": "_name",
          "type": "string"
        },
        {
          "internalType": "string",
          "name": "_symbol",
          "type": "string"
        },
        {
          "internalType": "string",
          "name": "_baseURI",
          "type": "string"
        }
      ],
      "stateMutability": "nonpayable",
      "type": "constructor"
    },
    {
      "inputs": [],
      "name": "MaxSupply",
      "type": "error"
    },
    {
      "inputs": [],
      "name": "MintPriceNotPaid",
      "type": "error"
    },
    {
      "inputs": [],
      "name": "NonExistentTokenURI",
      "type": "error"
    },
    {
      "inputs": [],
      "name": "WithdrawTransfer",
      "type": "error"
    },
    {
      "anonymous": false,
      "inputs": [
        {
          "indexed": true,
          "internalType": "address",
          "name": "owner",
          "type": "address"
        },
        {
          "indexed": true,
          "internalType": "address",
          "name": "spender",
          "type": "address"
        },
        {
          "indexed": true,
          "internalType": "uint256",
          "name": "id",
          "type": "uint256"
        }
      ],
      "name": "Approval",
      "type": "event"
    },
    {
      "anonymous": false,
      "inputs": [
        {
          "indexed": true,
          "internalType": "address",
          "name": "owner",
          "type": "address"
        },
        {
          "indexed": true,
          "internalType": "address",
          "name": "operator",
          "type": "address"
        },
        {
          "indexed": false,
          "internalType": "bool",
          "name": "approved",
          "type": "bool"
        }
      ],
      "name": "ApprovalForAll",
      "type": "event"
    },
    {
      "anonymous": false,
      "inputs": [
        {
          "indexed": true,
          "internalType": "address",
          "name": "previousOwner",
          "type": "address"
        },
        {
          "indexed": true,
          "internalType": "address",
          "name": "newOwner",
          "type": "address"
        }
      ],
      "name": "OwnershipTransferred",
      "type": "event"
    },
    {
      "anonymous": false,
      "inputs": [
        {
          "indexed": true,
          "internalType": "address",
          "name": "from",
          "type": "address"
        },
        {
          "indexed": true,
          "internalType": "address",
          "name": "to",
          "type": "address"
        },
        {
          "indexed": true,
          "internalType": "uint256",
          "name": "id",
          "type": "uint256"
        }
      ],
      "name": "Transfer",
      "type": "event"
    },
    {
      "inputs": [],
      "name": "MINT_PRICE",
      "outputs": [
        {
          "internalType": "uint256",
          "name": "",
          "type": "uint256"
        }
      ],
      "stateMutability": "view",
      "type": "function"
    },
    {
      "inputs": [],
      "name": "TOTAL_SUPPLY",
      "outputs": [
        {
          "internalType": "uint256",
          "name": "",
          "type": "uint256"
        }
      ],
      "stateMutability": "view",
      "type": "function"
    },
    {
      "inputs": [
        {
          "internalType": "address",
          "name": "spender",
          "type": "address"
        },
        {
          "internalType": "uint256",
          "name": "id",
          "type": "uint256"
        }
      ],
      "name": "approve",
      "outputs": [],
      "stateMutability": "nonpayable",
      "type": "function"
    },
    {
      "inputs": [
        {
          "internalType": "address",
          "name": "owner",
          "type": "address"
        }
      ],
      "name": "balanceOf",
      "outputs": [
        {
          "internalType": "uint256",
          "name": "",
          "type": "uint256"
        }
      ],
      "stateMutability": "view",
      "type": "function"
    },
    {
      "inputs": [],
      "name": "baseURI",
      "outputs": [
        {
          "internalType": "string",
          "name": "",
          "type": "string"
        }
      ],
      "stateMutability": "view",
      "type": "function"
    },
    {
      "inputs": [],
      "name": "currentTokenId",
      "outputs": [
        {
          "internalType": "uint256",
          "name": "",
          "type": "uint256"
        }
      ],
      "stateMutability": "view",
      "type": "function"
    },
    {
      "inputs": [
        {
          "internalType": "uint256",
          "name": "",
          "type": "uint256"
        }
      ],
      "name": "getApproved",
      "outputs": [
        {
          "internalType": "address",
          "name": "",
          "type": "address"
        }
      ],
      "stateMutability": "view",
      "type": "function"
    },
    {
      "inputs": [
        {
          "internalType": "address",
          "name": "",
          "type": "address"
        },
        {
          "internalType": "address",
          "name": "",
          "type": "address"
        }
      ],
      "name": "isApprovedForAll",
      "outputs": [
        {
          "internalType": "bool",
          "name": "",
          "type": "bool"
        }
      ],
      "stateMutability": "view",
      "type": "function"
    },
    {
      "inputs": [
        {
          "internalType": "address",
          "name": "recipient",
          "type": "address"
        },
        {
          "internalType": "string",
          "name": "script",
          "type": "string"
        }
      ],
      "name": "mintTo",
      "outputs": [
        {
          "internalType": "uint256",
          "name": "",
          "type": "uint256"
        }
      ],
      "stateMutability": "payable",
      "type": "function"
    },
    {
      "inputs": [],
      "name": "name",
      "outputs": [
        {
          "internalType": "string",
          "name": "",
          "type": "string"
        }
      ],
      "stateMutability": "view",
      "type": "function"
    },
    {
      "inputs": [],
      "name": "owner",
      "outputs": [
        {
          "internalType": "address",
          "name": "",
          "type": "address"
        }
      ],
      "stateMutability": "view",
      "type": "function"
    },
    {
      "inputs": [
        {
          "internalType": "uint256",
          "name": "id",
          "type": "uint256"
        }
      ],
      "name": "ownerOf",
      "outputs": [
        {
          "internalType": "address",
          "name": "owner",
          "type": "address"
        }
      ],
      "stateMutability": "view",
      "type": "function"
    },
    {
      "inputs": [],
      "name": "renounceOwnership",
      "outputs": [],
      "stateMutability": "nonpayable",
      "type": "function"
    },
    {
      "inputs": [
        {
          "internalType": "address",
          "name": "from",
          "type": "address"
        },
        {
          "internalType": "address",
          "name": "to",
          "type": "address"
        },
        {
          "internalType": "uint256",
          "name": "id",
          "type": "uint256"
        }
      ],
      "name": "safeTransferFrom",
      "outputs": [],
      "stateMutability": "nonpayable",
      "type": "function"
    },
    {
      "inputs": [
        {
          "internalType": "address",
          "name": "from",
          "type": "address"
        },
        {
          "internalType": "address",
          "name": "to",
          "type": "address"
        },
        {
          "internalType": "uint256",
          "name": "id",
          "type": "uint256"
        },
        {
          "internalType": "bytes",
          "name": "data",
          "type": "bytes"
        }
      ],
      "name": "safeTransferFrom",
      "outputs": [],
      "stateMutability": "nonpayable",
      "type": "function"
    },
    {
      "inputs": [
        {
          "internalType": "address",
          "name": "operator",
          "type": "address"
        },
        {
          "internalType": "bool",
          "name": "approved",
          "type": "bool"
        }
      ],
      "name": "setApprovalForAll",
      "outputs": [],
      "stateMutability": "nonpayable",
      "type": "function"
    },
    {
      "inputs": [
        {
          "internalType": "bytes4",
          "name": "interfaceId",
          "type": "bytes4"
        }
      ],
      "name": "supportsInterface",
      "outputs": [
        {
          "internalType": "bool",
          "name": "",
          "type": "bool"
        }
      ],
      "stateMutability": "view",
      "type": "function"
    },
    {
      "inputs": [],
      "name": "symbol",
      "outputs": [
        {
          "internalType": "string",
          "name": "",
          "type": "string"
        }
      ],
      "stateMutability": "view",
      "type": "function"
    },
    {
      "inputs": [
        {
          "internalType": "uint256",
          "name": "tokenId",
          "type": "uint256"
        }
      ],
      "name": "tokenURI",
      "outputs": [
        {
          "internalType": "string",
          "name": "",
          "type": "string"
        }
      ],
      "stateMutability": "view",
      "type": "function"
    },
    {
      "inputs": [
        {
          "internalType": "address",
          "name": "from",
          "type": "address"
        },
        {
          "internalType": "address",
          "name": "to",
          "type": "address"
        },
        {
          "internalType": "uint256",
          "name": "id",
          "type": "uint256"
        }
      ],
      "name": "transferFrom",
      "outputs": [],
      "stateMutability": "nonpayable",
      "type": "function"
    },
    {
      "inputs": [
        {
          "internalType": "address",
          "name": "newOwner",
          "type": "address"
        }
      ],
      "name": "transferOwnership",
      "outputs": [],
      "stateMutability": "nonpayable",
      "type": "function"
    },
    {
      "inputs": [
        {
          "internalType": "address payable",
          "name": "payee",
          "type": "address"
        }
      ],
      "name": "withdrawPayments",
      "outputs": [],
      "stateMutability": "nonpayable",
      "type": "function"
    }
  ],
  "bytecode": {
    "object": "0x60806040523480156200001157600080fd5b50604051620026dc380380620026dc8339810160408190526200003491620001ab565b82826000620000448382620002cb565b506001620000538282620002cb565b505050620000706200006a6200008860201b60201c565b6200008c565b60076200007e8282620002cb565b5050505062000397565b3390565b600680546001600160a01b038381166001600160a01b0319831681179093556040519116919082907f8be0079c531659141344cd1fd0a4f28419497f9722a3daafe3b4186f6b6457e090600090a35050565b634e487b7160e01b600052604160045260246000fd5b600082601f8301126200010657600080fd5b81516001600160401b0380821115620001235762000123620000de565b604051601f8301601f19908116603f011681019082821181831017156200014e576200014e620000de565b816040528381526020925086838588010111156200016b57600080fd5b600091505b838210156200018f578582018301518183018401529082019062000170565b83821115620001a15760008385830101525b9695505050505050565b600080600060608486031215620001c157600080fd5b83516001600160401b0380821115620001d957600080fd5b620001e787838801620000f4565b94506020860151915080821115620001fe57600080fd5b6200020c87838801620000f4565b935060408601519150808211156200022357600080fd5b506200023286828701620000f4565b9150509250925092565b600181811c908216806200025157607f821691505b6020821081036200027257634e487b7160e01b600052602260045260246000fd5b50919050565b601f821115620002c657600081815260208120601f850160051c81016020861015620002a15750805b601f850160051c820191505b81811015620002c257828155600101620002ad565b5050505b505050565b81516001600160401b03811115620002e757620002e7620000de565b620002ff81620002f884546200023c565b8462000278565b602080601f8311600181146200033757600084156200031e5750858301515b600019600386901b1c1916600185901b178555620002c2565b600085815260208120601f198616915b82811015620003685788860151825594840194600190910190840162000347565b5085821015620003875787850151600019600388901b60f8161c191681555b5050505050600190811b01905550565b61233580620003a76000396000f3fe6080604052600436106101735760003560e01c806370a08231116100cb578063a22cb4651161007f578063c87b56dd11610059578063c87b56dd1461040b578063e985e9c51461042b578063f2fde38b1461046657600080fd5b8063a22cb465146103b0578063b88d4fde146103d0578063c002d23d146103f057600080fd5b80638da5cb5b116100b05780638da5cb5b1461035a578063902d55a51461038557806395d89b411461039b57600080fd5b806370a0823114610325578063715018a61461034557600080fd5b8063095ea7b31161012d57806342842e0e1161010757806342842e0e146102d05780636352211e146102f05780636c0360eb1461031057600080fd5b8063095ea7b31461026e57806323b872dd1461029057806331b3eb94146102b057600080fd5b806301ffc9a71161015e57806301ffc9a7146101b457806306fdde03146101e4578063081812fc1461020657600080fd5b806275a317146101785780629a9b7b1461019e575b600080fd5b61018b610186366004611983565b610486565b6040519081526020015b60405180910390f35b3480156101aa57600080fd5b5061018b60085481565b3480156101c057600080fd5b506101d46101cf366004611a93565b610546565b6040519015158152602001610195565b3480156101f057600080fd5b506101f961062b565b6040516101959190611ae0565b34801561021257600080fd5b50610249610221366004611b31565b60046020526000908152604090205473ffffffffffffffffffffffffffffffffffffffff1681565b60405173ffffffffffffffffffffffffffffffffffffffff9091168152602001610195565b34801561027a57600080fd5b5061028e610289366004611b4a565b6106b9565b005b34801561029c57600080fd5b5061028e6102ab366004611b76565b610808565b3480156102bc57600080fd5b5061028e6102cb366004611bb7565b610acf565b3480156102dc57600080fd5b5061028e6102eb366004611b76565b610b76565b3480156102fc57600080fd5b5061024961030b366004611b31565b610cdb565b34801561031c57600080fd5b506101f9610d6c565b34801561033157600080fd5b5061018b610340366004611bb7565b610d79565b34801561035157600080fd5b5061028e610e21565b34801561036657600080fd5b5060065473ffffffffffffffffffffffffffffffffffffffff16610249565b34801561039157600080fd5b5061018b6103e881565b3480156103a757600080fd5b506101f9610e35565b3480156103bc57600080fd5b5061028e6103cb366004611bd4565b610e42565b3480156103dc57600080fd5b5061028e6103eb366004611c12565b610ed9565b3480156103fc57600080fd5b5061018b66b1a2bc2ec5000081565b34801561041757600080fd5b506101f9610426366004611b31565b611033565b34801561043757600080fd5b506101d4610446366004611cb1565b600560209081526000928352604080842090915290825290205460ff1681565b34801561047257600080fd5b5061028e610481366004611bb7565b6111f5565b600066b1a2bc2ec5000034146104c8576040517f21e191e200000000000000000000000000000000000000000000000000000000815260040160405180910390fd5b60006008600081546104d990611d0e565b918290555090506103e881111561051c576040517fb36c128400000000000000000000000000000000000000000000000000000000815260040160405180910390fd5b60008181526009602052604090206105348482611de7565b5061053f84826112ac565b9392505050565b60007f01ffc9a7000000000000000000000000000000000000000000000000000000007fffffffff00000000000000000000000000000000000000000000000000000000831614806105d957507f80ac58cd000000000000000000000000000000000000000000000000000000007fffffffff000000000000000000000000000000000000000000000000000000008316145b8061062557507f5b5e139f000000000000000000000000000000000000000000000000000000007fffffffff000000000000000000000000000000000000000000000000000000008316145b92915050565b6000805461063890611d46565b80601f016020809104026020016040519081016040528092919081815260200182805461066490611d46565b80156106b15780601f10610686576101008083540402835291602001916106b1565b820191906000526020600020905b81548152906001019060200180831161069457829003601f168201915b505050505081565b60008181526002602052604090205473ffffffffffffffffffffffffffffffffffffffff163381148061071c575073ffffffffffffffffffffffffffffffffffffffff8116600090815260056020908152604080832033845290915290205460ff165b610787576040517f08c379a000000000000000000000000000000000000000000000000000000000815260206004820152600e60248201527f4e4f545f415554484f52495a454400000000000000000000000000000000000060448201526064015b60405180910390fd5b60008281526004602052604080822080547fffffffffffffffffffffffff00000000000000000000000000000000000000001673ffffffffffffffffffffffffffffffffffffffff87811691821790925591518593918516917f8c5be1e5ebec7d5bd14f71427d1e84f3dd0314c0f7b2291e5b200ac8c7c3b92591a4505050565b60008181526002602052604090205473ffffffffffffffffffffffffffffffffffffffff848116911614610898576040517f08c379a000000000000000000000000000000000000000000000000000000000815260206004820152600a60248201527f57524f4e475f46524f4d00000000000000000000000000000000000000000000604482015260640161077e565b73ffffffffffffffffffffffffffffffffffffffff8216610915576040517f08c379a000000000000000000000000000000000000000000000000000000000815260206004820152601160248201527f494e56414c49445f524543495049454e54000000000000000000000000000000604482015260640161077e565b3373ffffffffffffffffffffffffffffffffffffffff84161480610969575073ffffffffffffffffffffffffffffffffffffffff8316600090815260056020908152604080832033845290915290205460ff165b80610997575060008181526004602052604090205473ffffffffffffffffffffffffffffffffffffffff1633145b6109fd576040517f08c379a000000000000000000000000000000000000000000000000000000000815260206004820152600e60248201527f4e4f545f415554484f52495a4544000000000000000000000000000000000000604482015260640161077e565b73ffffffffffffffffffffffffffffffffffffffff808416600081815260036020908152604080832080547fffffffffffffffffffffffffffffffffffffffffffffffffffffffffffffffff019055938616808352848320805460010190558583526002825284832080547fffffffffffffffffffffffff00000000000000000000000000000000000000009081168317909155600490925284832080549092169091559251849392917fddf252ad1be2c89b69c2b068fc378daa952ba7f163c4a11628f55a4df523b3ef91a4505050565b610ad7611411565b604051479060009073ffffffffffffffffffffffffffffffffffffffff84169083908381818185875af1925050503d8060008114610b31576040519150601f19603f3d011682016040523d82523d6000602084013e610b36565b606091505b5050905080610b71576040517fd23a9e8900000000000000000000000000000000000000000000000000000000815260040160405180910390fd5b505050565b610b81838383610808565b73ffffffffffffffffffffffffffffffffffffffff82163b1580610c7557506040517f150b7a020000000000000000000000000000000000000000000000000000000080825233600483015273ffffffffffffffffffffffffffffffffffffffff858116602484015260448301849052608060648401526000608484015290919084169063150b7a029060a4016020604051808303816000875af1158015610c2d573d6000803e3d6000fd5b505050506040513d601f19601f82011682018060405250810190610c519190611f01565b7fffffffff0000000000000000000000000000000000000000000000000000000016145b610b71576040517f08c379a000000000000000000000000000000000000000000000000000000000815260206004820152601060248201527f554e534146455f524543495049454e5400000000000000000000000000000000604482015260640161077e565b60008181526002602052604090205473ffffffffffffffffffffffffffffffffffffffff1680610d67576040517f08c379a000000000000000000000000000000000000000000000000000000000815260206004820152600a60248201527f4e4f545f4d494e54454400000000000000000000000000000000000000000000604482015260640161077e565b919050565b6007805461063890611d46565b600073ffffffffffffffffffffffffffffffffffffffff8216610df8576040517f08c379a000000000000000000000000000000000000000000000000000000000815260206004820152600c60248201527f5a45524f5f414444524553530000000000000000000000000000000000000000604482015260640161077e565b5073ffffffffffffffffffffffffffffffffffffffff1660009081526003602052604090205490565b610e29611411565b610e336000611492565b565b6001805461063890611d46565b33600081815260056020908152604080832073ffffffffffffffffffffffffffffffffffffffff87168085529083529281902080547fffffffffffffffffffffffffffffffffffffffffffffffffffffffffffffff001686151590811790915590519081529192917f17307eab39ab6107e8899845ad3d59bd9653f200f220920489ca2b5937696c31910160405180910390a35050565b610ee4858585610808565b73ffffffffffffffffffffffffffffffffffffffff84163b1580610fc657506040517f150b7a02000000000000000000000000000000000000000000000000000000008082529073ffffffffffffffffffffffffffffffffffffffff86169063150b7a0290610f5f9033908a90899089908990600401611f1e565b6020604051808303816000875af1158015610f7e573d6000803e3d6000fd5b505050506040513d601f19601f82011682018060405250810190610fa29190611f01565b7fffffffff0000000000000000000000000000000000000000000000000000000016145b61102c576040517f08c379a000000000000000000000000000000000000000000000000000000000815260206004820152601060248201527f554e534146455f524543495049454e5400000000000000000000000000000000604482015260640161077e565b5050505050565b6060600061104083610cdb565b73ffffffffffffffffffffffffffffffffffffffff160361108d576040517fd872946b00000000000000000000000000000000000000000000000000000000815260040160405180910390fd5b6000604051806080016040528060528152602001612235605291396000848152600960205260408120805492935090916110c690611d46565b80601f01602080910402602001604051908101604052809291908181526020018280546110f290611d46565b801561113f5780601f106111145761010080835404028352916020019161113f565b820191906000526020600020905b81548152906001019060200180831161112257829003601f168201915b5050505050905060006040518060600160405280603981526020016122c7603991399050600083838360405160200161117a93929190611f9d565b604051602081830303815290604052905060006111c761119988611509565b6111a284611646565b6040516020016111b3929190611fe0565b604051602081830303815290604052611646565b9050806040516020016111da91906120fd565b60405160208183030381529060405295505050505050919050565b6111fd611411565b73ffffffffffffffffffffffffffffffffffffffff81166112a0576040517f08c379a000000000000000000000000000000000000000000000000000000000815260206004820152602660248201527f4f776e61626c653a206e6577206f776e657220697320746865207a65726f206160448201527f6464726573730000000000000000000000000000000000000000000000000000606482015260840161077e565b6112a981611492565b50565b6112b68282611799565b73ffffffffffffffffffffffffffffffffffffffff82163b15806113a757506040517f150b7a0200000000000000000000000000000000000000000000000000000000808252336004830152600060248301819052604483018490526080606484015260848301529073ffffffffffffffffffffffffffffffffffffffff84169063150b7a029060a4016020604051808303816000875af115801561135f573d6000803e3d6000fd5b505050506040513d601f19601f820116820180604052508101906113839190611f01565b7fffffffff0000000000000000000000000000000000000000000000000000000016145b61140d576040517f08c379a000000000000000000000000000000000000000000000000000000000815260206004820152601060248201527f554e534146455f524543495049454e5400000000000000000000000000000000604482015260640161077e565b5050565b60065473ffffffffffffffffffffffffffffffffffffffff163314610e33576040517f08c379a000000000000000000000000000000000000000000000000000000000815260206004820181905260248201527f4f776e61626c653a2063616c6c6572206973206e6f7420746865206f776e6572604482015260640161077e565b6006805473ffffffffffffffffffffffffffffffffffffffff8381167fffffffffffffffffffffffff0000000000000000000000000000000000000000831681179093556040519116919082907f8be0079c531659141344cd1fd0a4f28419497f9722a3daafe3b4186f6b6457e090600090a35050565b60608160000361154c57505060408051808201909152600181527f3000000000000000000000000000000000000000000000000000000000000000602082015290565b8160005b8115611576578061156081611d0e565b915061156f9050600a83612171565b9150611550565b60008167ffffffffffffffff81111561159157611591611954565b6040519080825280601f01601f1916602001820160405280156115bb576020820181803683370190505b5090505b841561163e576115d0600183612185565b91506115dd600a8661219c565b6115e89060306121b0565b60f81b8183815181106115fd576115fd6121c8565b60200101907effffffffffffffffffffffffffffffffffffffffffffffffffffffffffffff1916908160001a905350611637600a86612171565b94506115bf565b949350505050565b6060815160000361166557505060408051602081019091526000815290565b6000604051806060016040528060408152602001612287604091399050600060038451600261169491906121b0565b61169e9190612171565b6116a99060046121f7565b67ffffffffffffffff8111156116c1576116c1611954565b6040519080825280601f01601f1916602001820160405280156116eb576020820181803683370190505b509050600182016020820185865187015b80821015611757576003820191508151603f8160121c168501518453600184019350603f81600c1c168501518453600184019350603f8160061c168501518453600184019350603f81168501518453506001830192506116fc565b505060038651066001811461177357600281146117865761178e565b603d6001830353603d600283035361178e565b603d60018303535b509195945050505050565b73ffffffffffffffffffffffffffffffffffffffff8216611816576040517f08c379a000000000000000000000000000000000000000000000000000000000815260206004820152601160248201527f494e56414c49445f524543495049454e54000000000000000000000000000000604482015260640161077e565b60008181526002602052604090205473ffffffffffffffffffffffffffffffffffffffff16156118a2576040517f08c379a000000000000000000000000000000000000000000000000000000000815260206004820152600e60248201527f414c52454144595f4d494e544544000000000000000000000000000000000000604482015260640161077e565b73ffffffffffffffffffffffffffffffffffffffff8216600081815260036020908152604080832080546001019055848352600290915280822080547fffffffffffffffffffffffff0000000000000000000000000000000000000000168417905551839291907fddf252ad1be2c89b69c2b068fc378daa952ba7f163c4a11628f55a4df523b3ef908290a45050565b73ffffffffffffffffffffffffffffffffffffffff811681146112a957600080fd5b7f4e487b7100000000000000000000000000000000000000000000000000000000600052604160045260246000fd5b6000806040838503121561199657600080fd5b82356119a181611932565b9150602083013567ffffffffffffffff808211156119be57600080fd5b818501915085601f8301126119d257600080fd5b8135818111156119e4576119e4611954565b604051601f82017fffffffffffffffffffffffffffffffffffffffffffffffffffffffffffffffe0908116603f01168101908382118183101715611a2a57611a2a611954565b81604052828152886020848701011115611a4357600080fd5b8260208601602083013760006020848301015280955050505050509250929050565b7fffffffff00000000000000000000000000000000000000000000000000000000811681146112a957600080fd5b600060208284031215611aa557600080fd5b813561053f81611a65565b60005b83811015611acb578181015183820152602001611ab3565b83811115611ada576000848401525b50505050565b6020815260008251806020840152611aff816040850160208701611ab0565b601f017fffffffffffffffffffffffffffffffffffffffffffffffffffffffffffffffe0169190910160400192915050565b600060208284031215611b4357600080fd5b5035919050565b60008060408385031215611b5d57600080fd5b8235611b6881611932565b946020939093013593505050565b600080600060608486031215611b8b57600080fd5b8335611b9681611932565b92506020840135611ba681611932565b929592945050506040919091013590565b600060208284031215611bc957600080fd5b813561053f81611932565b60008060408385031215611be757600080fd5b8235611bf281611932565b915060208301358015158114611c0757600080fd5b809150509250929050565b600080600080600060808688031215611c2a57600080fd5b8535611c3581611932565b94506020860135611c4581611932565b935060408601359250606086013567ffffffffffffffff80821115611c6957600080fd5b818801915088601f830112611c7d57600080fd5b813581811115611c8c57600080fd5b896020828501011115611c9e57600080fd5b9699959850939650602001949392505050565b60008060408385031215611cc457600080fd5b8235611ccf81611932565b91506020830135611c0781611932565b7f4e487b7100000000000000000000000000000000000000000000000000000000600052601160045260246000fd5b60007fffffffffffffffffffffffffffffffffffffffffffffffffffffffffffffffff8203611d3f57611d3f611cdf565b5060010190565b600181811c90821680611d5a57607f821691505b602082108103611d93577f4e487b7100000000000000000000000000000000000000000000000000000000600052602260045260246000fd5b50919050565b601f821115610b7157600081815260208120601f850160051c81016020861015611dc05750805b601f850160051c820191505b81811015611ddf57828155600101611dcc565b505050505050565b815167ffffffffffffffff811115611e0157611e01611954565b611e1581611e0f8454611d46565b84611d99565b602080601f831160018114611e685760008415611e325750858301515b7fffffffffffffffffffffffffffffffffffffffffffffffffffffffffffffffff600386901b1c1916600185901b178555611ddf565b6000858152602081207fffffffffffffffffffffffffffffffffffffffffffffffffffffffffffffffe08616915b82811015611eb557888601518255948401946001909101908401611e96565b5085821015611ef157878501517fffffffffffffffffffffffffffffffffffffffffffffffffffffffffffffffff600388901b60f8161c191681555b5050505050600190811b01905550565b600060208284031215611f1357600080fd5b815161053f81611a65565b600073ffffffffffffffffffffffffffffffffffffffff808816835280871660208401525084604083015260806060830152826080830152828460a0840137600060a0848401015260a07fffffffffffffffffffffffffffffffffffffffffffffffffffffffffffffffe0601f85011683010190509695505050505050565b60008451611faf818460208901611ab0565b845190830190611fc3818360208901611ab0565b8451910190611fd6818360208801611ab0565b0195945050505050565b7f7b226e616d65223a202241726269747261727953564720230000000000000000815260008351612018816018850160208801611ab0565b7f222c20226465736372697074696f6e223a20224120636f6d706c6574656c79206018918401918201527f6f6e2d636861696e20696e746572616374697665204e4654000000000000000060388201527f222c2022696d6167655f64617461223a2022646174613a696d6167652f73766760508201527f2b786d6c3b6261736536342c0000000000000000000000000000000000000000607082015283516120c781607c840160208801611ab0565b7f227d000000000000000000000000000000000000000000000000000000000000607c9290910191820152607e01949350505050565b7f646174613a6170706c69636174696f6e2f6a736f6e3b6261736536342c00000081526000825161213581601d850160208701611ab0565b91909101601d0192915050565b7f4e487b7100000000000000000000000000000000000000000000000000000000600052601260045260246000fd5b60008261218057612180612142565b500490565b60008282101561219757612197611cdf565b500390565b6000826121ab576121ab612142565b500690565b600082198211156121c3576121c3611cdf565b500190565b7f4e487b7100000000000000000000000000000000000000000000000000000000600052603260045260246000fd5b6000817fffffffffffffffffffffffffffffffffffffffffffffffffffffffffffffffff048311821515161561222f5761222f611cdf565b50029056fe3c7376672076696577426f783d2230203020333530203335302220786d6c6e733d22687474703a2f2f7777772e77332e6f72672f323030302f737667223e3c7363726970743e2f2f3c215b43444154415b0a4142434445464748494a4b4c4d4e4f505152535455565758595a6162636465666768696a6b6c6d6e6f707172737475767778797a303132333435363738392b2f0a2f2f205d5d3e3c2f7363726970743e3c636972636c652063783d22313735222063793d223137352220723d22313030222f3e3c2f7376673ea2646970667358221220f11dfb3897cc84ac222ffdce94c921982b62be2b1147941907bff65a9c4bbaaa64736f6c634300080f0033",
    "linkReferences": {}
  },
  "methodIdentifiers": {
    "MINT_PRICE()": "c002d23d",
    "TOTAL_SUPPLY()": "902d55a5",
    "approve(address,uint256)": "095ea7b3",
    "balanceOf(address)": "70a08231",
    "baseURI()": "6c0360eb",
    "currentTokenId()": "009a9b7b",
    "getApproved(uint256)": "081812fc",
    "isApprovedForAll(address,address)": "e985e9c5",
    "mintTo(address,string)": "0075a317",
    "name()": "06fdde03",
    "owner()": "8da5cb5b",
    "ownerOf(uint256)": "6352211e",
    "renounceOwnership()": "715018a6",
    "safeTransferFrom(address,address,uint256)": "42842e0e",
    "safeTransferFrom(address,address,uint256,bytes)": "b88d4fde",
    "setApprovalForAll(address,bool)": "a22cb465",
    "supportsInterface(bytes4)": "01ffc9a7",
    "symbol()": "95d89b41",
    "tokenURI(uint256)": "c87b56dd",
    "transferFrom(address,address,uint256)": "23b872dd",
    "transferOwnership(address)": "f2fde38b",
    "withdrawPayments(address)": "31b3eb94"
  },
  "id": 16
}