{
  "abi": [
    {
      "inputs": [
        {
          "internalType": "string",
          "name": "_name",
          "type": "string"
        },
        {
          "internalType": "string",
          "name": "_symbol",
          "type": "string"
        },
        {
          "internalType": "string",
          "name": "_baseURI",
          "type": "string"
        }
      ],
      "stateMutability": "nonpayable",
      "type": "constructor"
    },
    {
      "inputs": [],
      "name": "MaxSupply",
      "type": "error"
    },
    {
      "inputs": [],
      "name": "NonExistentTokenURI",
      "type": "error"
    },
    {
      "anonymous": false,
      "inputs": [
        {
          "indexed": true,
          "internalType": "address",
          "name": "owner",
          "type": "address"
        },
        {
          "indexed": true,
          "internalType": "address",
          "name": "spender",
          "type": "address"
        },
        {
          "indexed": true,
          "internalType": "uint256",
          "name": "id",
          "type": "uint256"
        }
      ],
      "name": "Approval",
      "type": "event"
    },
    {
      "anonymous": false,
      "inputs": [
        {
          "indexed": true,
          "internalType": "address",
          "name": "owner",
          "type": "address"
        },
        {
          "indexed": true,
          "internalType": "address",
          "name": "operator",
          "type": "address"
        },
        {
          "indexed": false,
          "internalType": "bool",
          "name": "approved",
          "type": "bool"
        }
      ],
      "name": "ApprovalForAll",
      "type": "event"
    },
    {
      "anonymous": false,
      "inputs": [
        {
          "indexed": true,
          "internalType": "address",
          "name": "from",
          "type": "address"
        },
        {
          "indexed": true,
          "internalType": "address",
          "name": "to",
          "type": "address"
        },
        {
          "indexed": true,
          "internalType": "uint256",
          "name": "id",
          "type": "uint256"
        }
      ],
      "name": "Transfer",
      "type": "event"
    },
    {
      "inputs": [],
      "name": "TOTAL_SUPPLY",
      "outputs": [
        {
          "internalType": "uint256",
          "name": "",
          "type": "uint256"
        }
      ],
      "stateMutability": "view",
      "type": "function"
    },
    {
      "inputs": [
        {
          "internalType": "address",
          "name": "spender",
          "type": "address"
        },
        {
          "internalType": "uint256",
          "name": "id",
          "type": "uint256"
        }
      ],
      "name": "approve",
      "outputs": [],
      "stateMutability": "nonpayable",
      "type": "function"
    },
    {
      "inputs": [
        {
          "internalType": "address",
          "name": "owner",
          "type": "address"
        }
      ],
      "name": "balanceOf",
      "outputs": [
        {
          "internalType": "uint256",
          "name": "",
          "type": "uint256"
        }
      ],
      "stateMutability": "view",
      "type": "function"
    },
    {
      "inputs": [],
      "name": "baseURI",
      "outputs": [
        {
          "internalType": "string",
          "name": "",
          "type": "string"
        }
      ],
      "stateMutability": "view",
      "type": "function"
    },
    {
      "inputs": [],
      "name": "currentTokenId",
      "outputs": [
        {
          "internalType": "uint256",
          "name": "",
          "type": "uint256"
        }
      ],
      "stateMutability": "view",
      "type": "function"
    },
    {
      "inputs": [
        {
          "internalType": "uint256",
          "name": "",
          "type": "uint256"
        }
      ],
      "name": "getApproved",
      "outputs": [
        {
          "internalType": "address",
          "name": "",
          "type": "address"
        }
      ],
      "stateMutability": "view",
      "type": "function"
    },
    {
      "inputs": [
        {
          "internalType": "address",
          "name": "",
          "type": "address"
        },
        {
          "internalType": "address",
          "name": "",
          "type": "address"
        }
      ],
      "name": "isApprovedForAll",
      "outputs": [
        {
          "internalType": "bool",
          "name": "",
          "type": "bool"
        }
      ],
      "stateMutability": "view",
      "type": "function"
    },
    {
      "inputs": [
        {
          "internalType": "address",
          "name": "recipient",
          "type": "address"
        }
      ],
      "name": "mintTo",
      "outputs": [
        {
          "internalType": "uint256",
          "name": "",
          "type": "uint256"
        }
      ],
      "stateMutability": "payable",
      "type": "function"
    },
    {
      "inputs": [],
      "name": "name",
      "outputs": [
        {
          "internalType": "string",
          "name": "",
          "type": "string"
        }
      ],
      "stateMutability": "view",
      "type": "function"
    },
    {
      "inputs": [
        {
          "internalType": "uint256",
          "name": "id",
          "type": "uint256"
        }
      ],
      "name": "ownerOf",
      "outputs": [
        {
          "internalType": "address",
          "name": "owner",
          "type": "address"
        }
      ],
      "stateMutability": "view",
      "type": "function"
    },
    {
      "inputs": [
        {
          "internalType": "address",
          "name": "from",
          "type": "address"
        },
        {
          "internalType": "address",
          "name": "to",
          "type": "address"
        },
        {
          "internalType": "uint256",
          "name": "id",
          "type": "uint256"
        }
      ],
      "name": "safeTransferFrom",
      "outputs": [],
      "stateMutability": "nonpayable",
      "type": "function"
    },
    {
      "inputs": [
        {
          "internalType": "address",
          "name": "from",
          "type": "address"
        },
        {
          "internalType": "address",
          "name": "to",
          "type": "address"
        },
        {
          "internalType": "uint256",
          "name": "id",
          "type": "uint256"
        },
        {
          "internalType": "bytes",
          "name": "data",
          "type": "bytes"
        }
      ],
      "name": "safeTransferFrom",
      "outputs": [],
      "stateMutability": "nonpayable",
      "type": "function"
    },
    {
      "inputs": [
        {
          "internalType": "address",
          "name": "operator",
          "type": "address"
        },
        {
          "internalType": "bool",
          "name": "approved",
          "type": "bool"
        }
      ],
      "name": "setApprovalForAll",
      "outputs": [],
      "stateMutability": "nonpayable",
      "type": "function"
    },
    {
      "inputs": [
        {
          "internalType": "bytes4",
          "name": "interfaceId",
          "type": "bytes4"
        }
      ],
      "name": "supportsInterface",
      "outputs": [
        {
          "internalType": "bool",
          "name": "",
          "type": "bool"
        }
      ],
      "stateMutability": "view",
      "type": "function"
    },
    {
      "inputs": [],
      "name": "symbol",
      "outputs": [
        {
          "internalType": "string",
          "name": "",
          "type": "string"
        }
      ],
      "stateMutability": "view",
      "type": "function"
    },
    {
      "inputs": [
        {
          "internalType": "uint256",
          "name": "tokenId",
          "type": "uint256"
        }
      ],
      "name": "tokenURI",
      "outputs": [
        {
          "internalType": "string",
          "name": "",
          "type": "string"
        }
      ],
      "stateMutability": "view",
      "type": "function"
    },
    {
      "inputs": [
        {
          "internalType": "address",
          "name": "from",
          "type": "address"
        },
        {
          "internalType": "address",
          "name": "to",
          "type": "address"
        },
        {
          "internalType": "uint256",
          "name": "id",
          "type": "uint256"
        }
      ],
      "name": "transferFrom",
      "outputs": [],
      "stateMutability": "nonpayable",
      "type": "function"
    }
  ],
  "bytecode": {
    "object": "0x60806040523480156200001157600080fd5b50604051620020ce380380620020ce83398101604081905262000034916200013d565b828260006200004483826200025d565b5060016200005382826200025d565b506006915062000066905082826200025d565b5050505062000329565b634e487b7160e01b600052604160045260246000fd5b600082601f8301126200009857600080fd5b81516001600160401b0380821115620000b557620000b562000070565b604051601f8301601f19908116603f01168101908282118183101715620000e057620000e062000070565b81604052838152602092508683858801011115620000fd57600080fd5b600091505b8382101562000121578582018301518183018401529082019062000102565b83821115620001335760008385830101525b9695505050505050565b6000806000606084860312156200015357600080fd5b83516001600160401b03808211156200016b57600080fd5b620001798783880162000086565b945060208601519150808211156200019057600080fd5b6200019e8783880162000086565b93506040860151915080821115620001b557600080fd5b50620001c48682870162000086565b9150509250925092565b600181811c90821680620001e357607f821691505b6020821081036200020457634e487b7160e01b600052602260045260246000fd5b50919050565b601f8211156200025857600081815260208120601f850160051c81016020861015620002335750805b601f850160051c820191505b8181101562000254578281556001016200023f565b5050505b505050565b81516001600160401b0381111562000279576200027962000070565b62000291816200028a8454620001ce565b846200020a565b602080601f831160018114620002c95760008415620002b05750858301515b600019600386901b1c1916600185901b17855562000254565b600085815260208120601f198616915b82811015620002fa57888601518255948401946001909101908401620002d9565b5085821015620003195787850151600019600388901b60f8161c191681555b5050505050600190811b01905550565b611d9580620003396000396000f3fe60806040526004361061010d5760003560e01c80636c0360eb116100a557806395d89b4111610074578063b88d4fde11610059578063b88d4fde14610309578063c87b56dd14610329578063e985e9c51461034957600080fd5b806395d89b41146102d4578063a22cb465146102e957600080fd5b80636c0360eb1461027757806370a082311461028c578063755edd17146102ac578063902d55a5146102bf57600080fd5b8063095ea7b3116100e1578063095ea7b3146101f557806323b872dd1461021757806342842e0e146102375780636352211e1461025757600080fd5b80629a9b7b1461011257806301ffc9a71461013b57806306fdde031461016b578063081812fc1461018d575b600080fd5b34801561011e57600080fd5b5061012860075481565b6040519081526020015b60405180910390f35b34801561014757600080fd5b5061015b6101563660046115dc565b610384565b6040519015158152602001610132565b34801561017757600080fd5b50610180610469565b6040516101329190611630565b34801561019957600080fd5b506101d06101a8366004611681565b60046020526000908152604090205473ffffffffffffffffffffffffffffffffffffffff1681565b60405173ffffffffffffffffffffffffffffffffffffffff9091168152602001610132565b34801561020157600080fd5b506102156102103660046116be565b6104f7565b005b34801561022357600080fd5b506102156102323660046116e8565b610646565b34801561024357600080fd5b506102156102523660046116e8565b61090d565b34801561026357600080fd5b506101d0610272366004611681565b610a77565b34801561028357600080fd5b50610180610b08565b34801561029857600080fd5b506101286102a7366004611724565b610b15565b6101286102ba366004611724565b610bbd565b3480156102cb57600080fd5b50610128606481565b3480156102e057600080fd5b50610180610c1b565b3480156102f557600080fd5b5061021561030436600461173f565b610c28565b34801561031557600080fd5b5061021561032436600461177b565b610cbf565b34801561033557600080fd5b50610180610344366004611681565b610e19565b34801561035557600080fd5b5061015b610364366004611816565b600560209081526000928352604080842090915290825290205460ff1681565b60007f01ffc9a7000000000000000000000000000000000000000000000000000000007fffffffff000000000000000000000000000000000000000000000000000000008316148061041757507f80ac58cd000000000000000000000000000000000000000000000000000000007fffffffff000000000000000000000000000000000000000000000000000000008316145b8061046357507f5b5e139f000000000000000000000000000000000000000000000000000000007fffffffff000000000000000000000000000000000000000000000000000000008316145b92915050565b6000805461047690611849565b80601f01602080910402602001604051908101604052809291908181526020018280546104a290611849565b80156104ef5780601f106104c4576101008083540402835291602001916104ef565b820191906000526020600020905b8154815290600101906020018083116104d257829003601f168201915b505050505081565b60008181526002602052604090205473ffffffffffffffffffffffffffffffffffffffff163381148061055a575073ffffffffffffffffffffffffffffffffffffffff8116600090815260056020908152604080832033845290915290205460ff165b6105c5576040517f08c379a000000000000000000000000000000000000000000000000000000000815260206004820152600e60248201527f4e4f545f415554484f52495a454400000000000000000000000000000000000060448201526064015b60405180910390fd5b60008281526004602052604080822080547fffffffffffffffffffffffff00000000000000000000000000000000000000001673ffffffffffffffffffffffffffffffffffffffff87811691821790925591518593918516917f8c5be1e5ebec7d5bd14f71427d1e84f3dd0314c0f7b2291e5b200ac8c7c3b92591a4505050565b60008181526002602052604090205473ffffffffffffffffffffffffffffffffffffffff8481169116146106d6576040517f08c379a000000000000000000000000000000000000000000000000000000000815260206004820152600a60248201527f57524f4e475f46524f4d0000000000000000000000000000000000000000000060448201526064016105bc565b73ffffffffffffffffffffffffffffffffffffffff8216610753576040517f08c379a000000000000000000000000000000000000000000000000000000000815260206004820152601160248201527f494e56414c49445f524543495049454e5400000000000000000000000000000060448201526064016105bc565b3373ffffffffffffffffffffffffffffffffffffffff841614806107a7575073ffffffffffffffffffffffffffffffffffffffff8316600090815260056020908152604080832033845290915290205460ff165b806107d5575060008181526004602052604090205473ffffffffffffffffffffffffffffffffffffffff1633145b61083b576040517f08c379a000000000000000000000000000000000000000000000000000000000815260206004820152600e60248201527f4e4f545f415554484f52495a454400000000000000000000000000000000000060448201526064016105bc565b73ffffffffffffffffffffffffffffffffffffffff808416600081815260036020908152604080832080547fffffffffffffffffffffffffffffffffffffffffffffffffffffffffffffffff019055938616808352848320805460010190558583526002825284832080547fffffffffffffffffffffffff00000000000000000000000000000000000000009081168317909155600490925284832080549092169091559251849392917fddf252ad1be2c89b69c2b068fc378daa952ba7f163c4a11628f55a4df523b3ef91a4505050565b610918838383610646565b73ffffffffffffffffffffffffffffffffffffffff82163b1580610a0c57506040517f150b7a020000000000000000000000000000000000000000000000000000000080825233600483015273ffffffffffffffffffffffffffffffffffffffff858116602484015260448301849052608060648401526000608484015290919084169063150b7a029060a4016020604051808303816000875af11580156109c4573d6000803e3d6000fd5b505050506040513d601f19601f820116820180604052508101906109e8919061189c565b7fffffffff0000000000000000000000000000000000000000000000000000000016145b610a72576040517f08c379a000000000000000000000000000000000000000000000000000000000815260206004820152601060248201527f554e534146455f524543495049454e540000000000000000000000000000000060448201526064016105bc565b505050565b60008181526002602052604090205473ffffffffffffffffffffffffffffffffffffffff1680610b03576040517f08c379a000000000000000000000000000000000000000000000000000000000815260206004820152600a60248201527f4e4f545f4d494e5445440000000000000000000000000000000000000000000060448201526064016105bc565b919050565b6006805461047690611849565b600073ffffffffffffffffffffffffffffffffffffffff8216610b94576040517f08c379a000000000000000000000000000000000000000000000000000000000815260206004820152600c60248201527f5a45524f5f41444452455353000000000000000000000000000000000000000060448201526064016105bc565b5073ffffffffffffffffffffffffffffffffffffffff1660009081526003602052604090205490565b600080600760008154610bcf906118e8565b918290555090506064811115610c11576040517fb36c128400000000000000000000000000000000000000000000000000000000815260040160405180910390fd5b610463838261101d565b6001805461047690611849565b33600081815260056020908152604080832073ffffffffffffffffffffffffffffffffffffffff87168085529083529281902080547fffffffffffffffffffffffffffffffffffffffffffffffffffffffffffffff001686151590811790915590519081529192917f17307eab39ab6107e8899845ad3d59bd9653f200f220920489ca2b5937696c31910160405180910390a35050565b610cca858585610646565b73ffffffffffffffffffffffffffffffffffffffff84163b1580610dac57506040517f150b7a02000000000000000000000000000000000000000000000000000000008082529073ffffffffffffffffffffffffffffffffffffffff86169063150b7a0290610d459033908a90899089908990600401611920565b6020604051808303816000875af1158015610d64573d6000803e3d6000fd5b505050506040513d601f19601f82011682018060405250810190610d88919061189c565b7fffffffff0000000000000000000000000000000000000000000000000000000016145b610e12576040517f08c379a000000000000000000000000000000000000000000000000000000000815260206004820152601060248201527f554e534146455f524543495049454e540000000000000000000000000000000060448201526064016105bc565b5050505050565b60606000610e2683610a77565b73ffffffffffffffffffffffffffffffffffffffff1603610e73576040517fd872946b00000000000000000000000000000000000000000000000000000000815260040160405180910390fd5b60006040518060600160405280603e8152602001611c7c603e9139905060006040518060400160405280601581526020017f3c7363726970743e202f2f203c215b43444154415b0000000000000000000000815250905060006040518060a0016040528060668152602001611cba60669139604080518082018252600f81527f2f2f205d5d3e3c2f7363726970743e000000000000000000000000000000000060208083019190915282518084018452601e81527f3c636972636c652063783d2235222063793d22352220723d223422202f3e00008183015283518085018552600681527f3c2f7376673e00000000000000000000000000000000000000000000000000008184015293519495509193919291600091610f9f918991899189918991899189910161199f565b60405160208183030381529060405290506000610fec610fbe8b611182565b610fc7846112bf565b604051602001610fd8929190611a1e565b6040516020818303038152906040526112bf565b905080604051602001610fff9190611b15565b60405160208183030381529060405298505050505050505050919050565b6110278282611412565b73ffffffffffffffffffffffffffffffffffffffff82163b158061111857506040517f150b7a0200000000000000000000000000000000000000000000000000000000808252336004830152600060248301819052604483018490526080606484015260848301529073ffffffffffffffffffffffffffffffffffffffff84169063150b7a029060a4016020604051808303816000875af11580156110d0573d6000803e3d6000fd5b505050506040513d601f19601f820116820180604052508101906110f4919061189c565b7fffffffff0000000000000000000000000000000000000000000000000000000016145b61117e576040517f08c379a000000000000000000000000000000000000000000000000000000000815260206004820152601060248201527f554e534146455f524543495049454e540000000000000000000000000000000060448201526064016105bc565b5050565b6060816000036111c557505060408051808201909152600181527f3000000000000000000000000000000000000000000000000000000000000000602082015290565b8160005b81156111ef57806111d9816118e8565b91506111e89050600a83611b89565b91506111c9565b60008167ffffffffffffffff81111561120a5761120a611b9d565b6040519080825280601f01601f191660200182016040528015611234576020820181803683370190505b5090505b84156112b757611249600183611bcc565b9150611256600a86611be3565b611261906030611bf7565b60f81b81838151811061127657611276611c0f565b60200101907effffffffffffffffffffffffffffffffffffffffffffffffffffffffffffff1916908160001a9053506112b0600a86611b89565b9450611238565b949350505050565b606081516000036112de57505060408051602081019091526000815290565b6000604051806060016040528060408152602001611d20604091399050600060038451600261130d9190611bf7565b6113179190611b89565b611322906004611c3e565b67ffffffffffffffff81111561133a5761133a611b9d565b6040519080825280601f01601f191660200182016040528015611364576020820181803683370190505b509050600182016020820185865187015b808210156113d0576003820191508151603f8160121c168501518453600184019350603f81600c1c168501518453600184019350603f8160061c168501518453600184019350603f8116850151845350600183019250611375565b50506003865106600181146113ec57600281146113ff57611407565b603d6001830353603d6002830353611407565b603d60018303535b509195945050505050565b73ffffffffffffffffffffffffffffffffffffffff821661148f576040517f08c379a000000000000000000000000000000000000000000000000000000000815260206004820152601160248201527f494e56414c49445f524543495049454e5400000000000000000000000000000060448201526064016105bc565b60008181526002602052604090205473ffffffffffffffffffffffffffffffffffffffff161561151b576040517f08c379a000000000000000000000000000000000000000000000000000000000815260206004820152600e60248201527f414c52454144595f4d494e54454400000000000000000000000000000000000060448201526064016105bc565b73ffffffffffffffffffffffffffffffffffffffff8216600081815260036020908152604080832080546001019055848352600290915280822080547fffffffffffffffffffffffff0000000000000000000000000000000000000000168417905551839291907fddf252ad1be2c89b69c2b068fc378daa952ba7f163c4a11628f55a4df523b3ef908290a45050565b7fffffffff00000000000000000000000000000000000000000000000000000000811681146115d957600080fd5b50565b6000602082840312156115ee57600080fd5b81356115f9816115ab565b9392505050565b60005b8381101561161b578181015183820152602001611603565b8381111561162a576000848401525b50505050565b602081526000825180602084015261164f816040850160208701611600565b601f017fffffffffffffffffffffffffffffffffffffffffffffffffffffffffffffffe0169190910160400192915050565b60006020828403121561169357600080fd5b5035919050565b803573ffffffffffffffffffffffffffffffffffffffff81168114610b0357600080fd5b600080604083850312156116d157600080fd5b6116da8361169a565b946020939093013593505050565b6000806000606084860312156116fd57600080fd5b6117068461169a565b92506117146020850161169a565b9150604084013590509250925092565b60006020828403121561173657600080fd5b6115f98261169a565b6000806040838503121561175257600080fd5b61175b8361169a565b91506020830135801515811461177057600080fd5b809150509250929050565b60008060008060006080868803121561179357600080fd5b61179c8661169a565b94506117aa6020870161169a565b935060408601359250606086013567ffffffffffffffff808211156117ce57600080fd5b818801915088601f8301126117e257600080fd5b8135818111156117f157600080fd5b89602082850101111561180357600080fd5b9699959850939650602001949392505050565b6000806040838503121561182957600080fd5b6118328361169a565b91506118406020840161169a565b90509250929050565b600181811c9082168061185d57607f821691505b602082108103611896577f4e487b7100000000000000000000000000000000000000000000000000000000600052602260045260246000fd5b50919050565b6000602082840312156118ae57600080fd5b81516115f9816115ab565b7f4e487b7100000000000000000000000000000000000000000000000000000000600052601160045260246000fd5b60007fffffffffffffffffffffffffffffffffffffffffffffffffffffffffffffffff8203611919576119196118b9565b5060010190565b600073ffffffffffffffffffffffffffffffffffffffff808816835280871660208401525084604083015260806060830152826080830152828460a0840137600060a0848401015260a07fffffffffffffffffffffffffffffffffffffffffffffffffffffffffffffffe0601f85011683010190509695505050505050565b6000875160206119b28285838d01611600565b8851918401916119c58184848d01611600565b88519201916119d78184848c01611600565b87519201916119e98184848b01611600565b86519201916119fb8184848a01611600565b8551920191611a0d8184848901611600565b919091019998505050505050505050565b7f7b226e616d65223a20224e465420230000000000000000000000000000000000815260008351611a5681600f850160208801611600565b7f222c20226465736372697074696f6e223a202254657374000000000000000000600f918401918201527f222c2022696d6167655f64617461223a2022646174613a696d6167652f73766760268201527f2b786d6c3b6261736536342c000000000000000000000000000000000000000060468201528351611adf816052840160208801611600565b7f227d00000000000000000000000000000000000000000000000000000000000060529290910191820152605401949350505050565b7f646174613a6170706c69636174696f6e2f6a736f6e3b6261736536342c000000815260008251611b4d81601d850160208701611600565b91909101601d0192915050565b7f4e487b7100000000000000000000000000000000000000000000000000000000600052601260045260246000fd5b600082611b9857611b98611b5a565b500490565b7f4e487b7100000000000000000000000000000000000000000000000000000000600052604160045260246000fd5b600082821015611bde57611bde6118b9565b500390565b600082611bf257611bf2611b5a565b500690565b60008219821115611c0a57611c0a6118b9565b500190565b7f4e487b7100000000000000000000000000000000000000000000000000000000600052603260045260246000fd5b6000817fffffffffffffffffffffffffffffffffffffffffffffffffffffffffffffffff0483118215151615611c7657611c766118b9565b50029056fe3c73766720786d6c6e733d22687474703a2f2f7777772e77332e6f72672f323030302f737667222076696577426f783d223020302033353020333530223e646f63756d656e742e717565727953656c6563746f722827636972636c6527292e6164644576656e744c697374656e65722827636c69636b272c20286529203d3e207b20652e7461726765742e7374796c652e66696c6c203d20272331313333353527207d294142434445464748494a4b4c4d4e4f505152535455565758595a6162636465666768696a6b6c6d6e6f707172737475767778797a303132333435363738392b2fa264697066735822122040495a0c5b9bbf0c6ede201fc6403103b22fee33fb56597b534a85054f5b319064736f6c634300080f0033",
    "linkReferences": {}
  },
  "methodIdentifiers": {
    "TOTAL_SUPPLY()": "902d55a5",
    "approve(address,uint256)": "095ea7b3",
    "balanceOf(address)": "70a08231",
    "baseURI()": "6c0360eb",
    "currentTokenId()": "009a9b7b",
    "getApproved(uint256)": "081812fc",
    "isApprovedForAll(address,address)": "e985e9c5",
    "mintTo(address)": "755edd17",
    "name()": "06fdde03",
    "ownerOf(uint256)": "6352211e",
    "safeTransferFrom(address,address,uint256)": "42842e0e",
    "safeTransferFrom(address,address,uint256,bytes)": "b88d4fde",
    "setApprovalForAll(address,bool)": "a22cb465",
    "supportsInterface(bytes4)": "01ffc9a7",
    "symbol()": "95d89b41",
    "tokenURI(uint256)": "c87b56dd",
    "transferFrom(address,address,uint256)": "23b872dd"
  },
  "id": 11
}