{
  "abi": [
    {
      "inputs": [
        {
          "internalType": "string",
          "name": "_name",
          "type": "string"
        },
        {
          "internalType": "string",
          "name": "_symbol",
          "type": "string"
        },
        {
          "internalType": "string",
          "name": "_baseURI",
          "type": "string"
        }
      ],
      "stateMutability": "nonpayable",
      "type": "constructor"
    },
    {
      "inputs": [],
      "name": "MaxSupply",
      "type": "error"
    },
    {
      "inputs": [],
      "name": "MintPriceNotPaid",
      "type": "error"
    },
    {
      "inputs": [],
      "name": "NonExistentTokenURI",
      "type": "error"
    },
    {
      "inputs": [],
      "name": "WithdrawTransfer",
      "type": "error"
    },
    {
      "anonymous": false,
      "inputs": [
        {
          "indexed": true,
          "internalType": "address",
          "name": "owner",
          "type": "address"
        },
        {
          "indexed": true,
          "internalType": "address",
          "name": "spender",
          "type": "address"
        },
        {
          "indexed": true,
          "internalType": "uint256",
          "name": "id",
          "type": "uint256"
        }
      ],
      "name": "Approval",
      "type": "event"
    },
    {
      "anonymous": false,
      "inputs": [
        {
          "indexed": true,
          "internalType": "address",
          "name": "owner",
          "type": "address"
        },
        {
          "indexed": true,
          "internalType": "address",
          "name": "operator",
          "type": "address"
        },
        {
          "indexed": false,
          "internalType": "bool",
          "name": "approved",
          "type": "bool"
        }
      ],
      "name": "ApprovalForAll",
      "type": "event"
    },
    {
      "anonymous": false,
      "inputs": [
        {
          "indexed": true,
          "internalType": "address",
          "name": "previousOwner",
          "type": "address"
        },
        {
          "indexed": true,
          "internalType": "address",
          "name": "newOwner",
          "type": "address"
        }
      ],
      "name": "OwnershipTransferred",
      "type": "event"
    },
    {
      "anonymous": false,
      "inputs": [
        {
          "indexed": true,
          "internalType": "address",
          "name": "from",
          "type": "address"
        },
        {
          "indexed": true,
          "internalType": "address",
          "name": "to",
          "type": "address"
        },
        {
          "indexed": true,
          "internalType": "uint256",
          "name": "id",
          "type": "uint256"
        }
      ],
      "name": "Transfer",
      "type": "event"
    },
    {
      "inputs": [],
      "name": "MINT_PRICE",
      "outputs": [
        {
          "internalType": "uint256",
          "name": "",
          "type": "uint256"
        }
      ],
      "stateMutability": "view",
      "type": "function"
    },
    {
      "inputs": [],
      "name": "TOTAL_SUPPLY",
      "outputs": [
        {
          "internalType": "uint256",
          "name": "",
          "type": "uint256"
        }
      ],
      "stateMutability": "view",
      "type": "function"
    },
    {
      "inputs": [
        {
          "internalType": "address",
          "name": "spender",
          "type": "address"
        },
        {
          "internalType": "uint256",
          "name": "id",
          "type": "uint256"
        }
      ],
      "name": "approve",
      "outputs": [],
      "stateMutability": "nonpayable",
      "type": "function"
    },
    {
      "inputs": [
        {
          "internalType": "address",
          "name": "owner",
          "type": "address"
        }
      ],
      "name": "balanceOf",
      "outputs": [
        {
          "internalType": "uint256",
          "name": "",
          "type": "uint256"
        }
      ],
      "stateMutability": "view",
      "type": "function"
    },
    {
      "inputs": [],
      "name": "baseURI",
      "outputs": [
        {
          "internalType": "string",
          "name": "",
          "type": "string"
        }
      ],
      "stateMutability": "view",
      "type": "function"
    },
    {
      "inputs": [],
      "name": "currentTokenId",
      "outputs": [
        {
          "internalType": "uint256",
          "name": "",
          "type": "uint256"
        }
      ],
      "stateMutability": "view",
      "type": "function"
    },
    {
      "inputs": [
        {
          "internalType": "uint256",
          "name": "",
          "type": "uint256"
        }
      ],
      "name": "getApproved",
      "outputs": [
        {
          "internalType": "address",
          "name": "",
          "type": "address"
        }
      ],
      "stateMutability": "view",
      "type": "function"
    },
    {
      "inputs": [
        {
          "internalType": "address",
          "name": "",
          "type": "address"
        },
        {
          "internalType": "address",
          "name": "",
          "type": "address"
        }
      ],
      "name": "isApprovedForAll",
      "outputs": [
        {
          "internalType": "bool",
          "name": "",
          "type": "bool"
        }
      ],
      "stateMutability": "view",
      "type": "function"
    },
    {
      "inputs": [
        {
          "internalType": "address",
          "name": "recipient",
          "type": "address"
        }
      ],
      "name": "mintTo",
      "outputs": [
        {
          "internalType": "uint256",
          "name": "",
          "type": "uint256"
        }
      ],
      "stateMutability": "payable",
      "type": "function"
    },
    {
      "inputs": [],
      "name": "name",
      "outputs": [
        {
          "internalType": "string",
          "name": "",
          "type": "string"
        }
      ],
      "stateMutability": "view",
      "type": "function"
    },
    {
      "inputs": [],
      "name": "owner",
      "outputs": [
        {
          "internalType": "address",
          "name": "",
          "type": "address"
        }
      ],
      "stateMutability": "view",
      "type": "function"
    },
    {
      "inputs": [
        {
          "internalType": "uint256",
          "name": "id",
          "type": "uint256"
        }
      ],
      "name": "ownerOf",
      "outputs": [
        {
          "internalType": "address",
          "name": "owner",
          "type": "address"
        }
      ],
      "stateMutability": "view",
      "type": "function"
    },
    {
      "inputs": [],
      "name": "renounceOwnership",
      "outputs": [],
      "stateMutability": "nonpayable",
      "type": "function"
    },
    {
      "inputs": [
        {
          "internalType": "address",
          "name": "from",
          "type": "address"
        },
        {
          "internalType": "address",
          "name": "to",
          "type": "address"
        },
        {
          "internalType": "uint256",
          "name": "id",
          "type": "uint256"
        }
      ],
      "name": "safeTransferFrom",
      "outputs": [],
      "stateMutability": "nonpayable",
      "type": "function"
    },
    {
      "inputs": [
        {
          "internalType": "address",
          "name": "from",
          "type": "address"
        },
        {
          "internalType": "address",
          "name": "to",
          "type": "address"
        },
        {
          "internalType": "uint256",
          "name": "id",
          "type": "uint256"
        },
        {
          "internalType": "bytes",
          "name": "data",
          "type": "bytes"
        }
      ],
      "name": "safeTransferFrom",
      "outputs": [],
      "stateMutability": "nonpayable",
      "type": "function"
    },
    {
      "inputs": [
        {
          "internalType": "address",
          "name": "operator",
          "type": "address"
        },
        {
          "internalType": "bool",
          "name": "approved",
          "type": "bool"
        }
      ],
      "name": "setApprovalForAll",
      "outputs": [],
      "stateMutability": "nonpayable",
      "type": "function"
    },
    {
      "inputs": [
        {
          "internalType": "bytes4",
          "name": "interfaceId",
          "type": "bytes4"
        }
      ],
      "name": "supportsInterface",
      "outputs": [
        {
          "internalType": "bool",
          "name": "",
          "type": "bool"
        }
      ],
      "stateMutability": "view",
      "type": "function"
    },
    {
      "inputs": [],
      "name": "symbol",
      "outputs": [
        {
          "internalType": "string",
          "name": "",
          "type": "string"
        }
      ],
      "stateMutability": "view",
      "type": "function"
    },
    {
      "inputs": [
        {
          "internalType": "uint256",
          "name": "tokenId",
          "type": "uint256"
        }
      ],
      "name": "tokenURI",
      "outputs": [
        {
          "internalType": "string",
          "name": "",
          "type": "string"
        }
      ],
      "stateMutability": "view",
      "type": "function"
    },
    {
      "inputs": [
        {
          "internalType": "address",
          "name": "from",
          "type": "address"
        },
        {
          "internalType": "address",
          "name": "to",
          "type": "address"
        },
        {
          "internalType": "uint256",
          "name": "id",
          "type": "uint256"
        }
      ],
      "name": "transferFrom",
      "outputs": [],
      "stateMutability": "nonpayable",
      "type": "function"
    },
    {
      "inputs": [
        {
          "internalType": "address",
          "name": "newOwner",
          "type": "address"
        }
      ],
      "name": "transferOwnership",
      "outputs": [],
      "stateMutability": "nonpayable",
      "type": "function"
    },
    {
      "inputs": [
        {
          "internalType": "address payable",
          "name": "payee",
          "type": "address"
        }
      ],
      "name": "withdrawPayments",
      "outputs": [],
      "stateMutability": "nonpayable",
      "type": "function"
    }
  ],
  "bytecode": {
    "object": "0x60806040523480156200001157600080fd5b5060405162002566380380620025668339810160408190526200003491620001ab565b82826000620000448382620002cb565b506001620000538282620002cb565b505050620000706200006a6200008860201b60201c565b6200008c565b60076200007e8282620002cb565b5050505062000397565b3390565b600680546001600160a01b038381166001600160a01b0319831681179093556040519116919082907f8be0079c531659141344cd1fd0a4f28419497f9722a3daafe3b4186f6b6457e090600090a35050565b634e487b7160e01b600052604160045260246000fd5b600082601f8301126200010657600080fd5b81516001600160401b0380821115620001235762000123620000de565b604051601f8301601f19908116603f011681019082821181831017156200014e576200014e620000de565b816040528381526020925086838588010111156200016b57600080fd5b600091505b838210156200018f578582018301518183018401529082019062000170565b83821115620001a15760008385830101525b9695505050505050565b600080600060608486031215620001c157600080fd5b83516001600160401b0380821115620001d957600080fd5b620001e787838801620000f4565b94506020860151915080821115620001fe57600080fd5b6200020c87838801620000f4565b935060408601519150808211156200022357600080fd5b506200023286828701620000f4565b9150509250925092565b600181811c908216806200025157607f821691505b6020821081036200027257634e487b7160e01b600052602260045260246000fd5b50919050565b601f821115620002c657600081815260208120601f850160051c81016020861015620002a15750805b601f850160051c820191505b81811015620002c257828155600101620002ad565b5050505b505050565b81516001600160401b03811115620002e757620002e7620000de565b620002ff81620002f884546200023c565b8462000278565b602080601f8311600181146200033757600084156200031e5750858301515b600019600386901b1c1916600185901b178555620002c2565b600085815260208120601f198616915b82811015620003685788860151825594840194600190910190840162000347565b5085821015620003875787850151600019600388901b60f8161c191681555b5050505050600190811b01905550565b6121bf80620003a76000396000f3fe6080604052600436106101745760003560e01c8063715018a6116100cb578063a22cb4651161007f578063c87b56dd11610059578063c87b56dd1461040c578063e985e9c51461042c578063f2fde38b1461046757600080fd5b8063a22cb465146103b1578063b88d4fde146103d1578063c002d23d146103f157600080fd5b80638da5cb5b116100b05780638da5cb5b1461035b578063902d55a51461038657806395d89b411461039c57600080fd5b8063715018a614610333578063755edd171461034857600080fd5b806323b872dd1161012d5780636352211e116101075780636352211e146102de5780636c0360eb146102fe57806370a082311461031357600080fd5b806323b872dd1461027e57806331b3eb941461029e57806342842e0e146102be57600080fd5b806306fdde031161015e57806306fdde03146101d2578063081812fc146101f4578063095ea7b31461025c57600080fd5b80629a9b7b1461017957806301ffc9a7146101a2575b600080fd5b34801561018557600080fd5b5061018f60085481565b6040519081526020015b60405180910390f35b3480156101ae57600080fd5b506101c26101bd3660046118c5565b610487565b6040519015158152602001610199565b3480156101de57600080fd5b506101e761056c565b6040516101999190611919565b34801561020057600080fd5b5061023761020f36600461196a565b60046020526000908152604090205473ffffffffffffffffffffffffffffffffffffffff1681565b60405173ffffffffffffffffffffffffffffffffffffffff9091168152602001610199565b34801561026857600080fd5b5061027c6102773660046119a5565b6105fa565b005b34801561028a57600080fd5b5061027c6102993660046119d1565b610749565b3480156102aa57600080fd5b5061027c6102b9366004611a12565b610a10565b3480156102ca57600080fd5b5061027c6102d93660046119d1565b610ab7565b3480156102ea57600080fd5b506102376102f936600461196a565b610c1c565b34801561030a57600080fd5b506101e7610cad565b34801561031f57600080fd5b5061018f61032e366004611a12565b610cba565b34801561033f57600080fd5b5061027c610d62565b61018f610356366004611a12565b610d76565b34801561036757600080fd5b5060065473ffffffffffffffffffffffffffffffffffffffff16610237565b34801561039257600080fd5b5061018f6103e881565b3480156103a857600080fd5b506101e7610e16565b3480156103bd57600080fd5b5061027c6103cc366004611a2f565b610e23565b3480156103dd57600080fd5b5061027c6103ec366004611a6d565b610eba565b3480156103fd57600080fd5b5061018f662386f26fc1000081565b34801561041857600080fd5b506101e761042736600461196a565b611014565b34801561043857600080fd5b506101c2610447366004611b0c565b600560209081526000928352604080842090915290825290205460ff1681565b34801561047357600080fd5b5061027c610482366004611a12565b61115a565b60007f01ffc9a7000000000000000000000000000000000000000000000000000000007fffffffff000000000000000000000000000000000000000000000000000000008316148061051a57507f80ac58cd000000000000000000000000000000000000000000000000000000007fffffffff000000000000000000000000000000000000000000000000000000008316145b8061056657507f5b5e139f000000000000000000000000000000000000000000000000000000007fffffffff000000000000000000000000000000000000000000000000000000008316145b92915050565b6000805461057990611b3a565b80601f01602080910402602001604051908101604052809291908181526020018280546105a590611b3a565b80156105f25780601f106105c7576101008083540402835291602001916105f2565b820191906000526020600020905b8154815290600101906020018083116105d557829003601f168201915b505050505081565b60008181526002602052604090205473ffffffffffffffffffffffffffffffffffffffff163381148061065d575073ffffffffffffffffffffffffffffffffffffffff8116600090815260056020908152604080832033845290915290205460ff165b6106c8576040517f08c379a000000000000000000000000000000000000000000000000000000000815260206004820152600e60248201527f4e4f545f415554484f52495a454400000000000000000000000000000000000060448201526064015b60405180910390fd5b60008281526004602052604080822080547fffffffffffffffffffffffff00000000000000000000000000000000000000001673ffffffffffffffffffffffffffffffffffffffff87811691821790925591518593918516917f8c5be1e5ebec7d5bd14f71427d1e84f3dd0314c0f7b2291e5b200ac8c7c3b92591a4505050565b60008181526002602052604090205473ffffffffffffffffffffffffffffffffffffffff8481169116146107d9576040517f08c379a000000000000000000000000000000000000000000000000000000000815260206004820152600a60248201527f57524f4e475f46524f4d0000000000000000000000000000000000000000000060448201526064016106bf565b73ffffffffffffffffffffffffffffffffffffffff8216610856576040517f08c379a000000000000000000000000000000000000000000000000000000000815260206004820152601160248201527f494e56414c49445f524543495049454e5400000000000000000000000000000060448201526064016106bf565b3373ffffffffffffffffffffffffffffffffffffffff841614806108aa575073ffffffffffffffffffffffffffffffffffffffff8316600090815260056020908152604080832033845290915290205460ff165b806108d8575060008181526004602052604090205473ffffffffffffffffffffffffffffffffffffffff1633145b61093e576040517f08c379a000000000000000000000000000000000000000000000000000000000815260206004820152600e60248201527f4e4f545f415554484f52495a454400000000000000000000000000000000000060448201526064016106bf565b73ffffffffffffffffffffffffffffffffffffffff808416600081815260036020908152604080832080547fffffffffffffffffffffffffffffffffffffffffffffffffffffffffffffffff019055938616808352848320805460010190558583526002825284832080547fffffffffffffffffffffffff00000000000000000000000000000000000000009081168317909155600490925284832080549092169091559251849392917fddf252ad1be2c89b69c2b068fc378daa952ba7f163c4a11628f55a4df523b3ef91a4505050565b610a18611211565b604051479060009073ffffffffffffffffffffffffffffffffffffffff84169083908381818185875af1925050503d8060008114610a72576040519150601f19603f3d011682016040523d82523d6000602084013e610a77565b606091505b5050905080610ab2576040517fd23a9e8900000000000000000000000000000000000000000000000000000000815260040160405180910390fd5b505050565b610ac2838383610749565b73ffffffffffffffffffffffffffffffffffffffff82163b1580610bb657506040517f150b7a020000000000000000000000000000000000000000000000000000000080825233600483015273ffffffffffffffffffffffffffffffffffffffff858116602484015260448301849052608060648401526000608484015290919084169063150b7a029060a4016020604051808303816000875af1158015610b6e573d6000803e3d6000fd5b505050506040513d601f19601f82011682018060405250810190610b929190611b8d565b7fffffffff0000000000000000000000000000000000000000000000000000000016145b610ab2576040517f08c379a000000000000000000000000000000000000000000000000000000000815260206004820152601060248201527f554e534146455f524543495049454e540000000000000000000000000000000060448201526064016106bf565b60008181526002602052604090205473ffffffffffffffffffffffffffffffffffffffff1680610ca8576040517f08c379a000000000000000000000000000000000000000000000000000000000815260206004820152600a60248201527f4e4f545f4d494e5445440000000000000000000000000000000000000000000060448201526064016106bf565b919050565b6007805461057990611b3a565b600073ffffffffffffffffffffffffffffffffffffffff8216610d39576040517f08c379a000000000000000000000000000000000000000000000000000000000815260206004820152600c60248201527f5a45524f5f41444452455353000000000000000000000000000000000000000060448201526064016106bf565b5073ffffffffffffffffffffffffffffffffffffffff1660009081526003602052604090205490565b610d6a611211565b610d746000611292565b565b6000662386f26fc100003414610db8576040517f21e191e200000000000000000000000000000000000000000000000000000000815260040160405180910390fd5b6000600860008154610dc990611bd9565b918290555090506103e8811115610e0c576040517fb36c128400000000000000000000000000000000000000000000000000000000815260040160405180910390fd5b6105668382611309565b6001805461057990611b3a565b33600081815260056020908152604080832073ffffffffffffffffffffffffffffffffffffffff87168085529083529281902080547fffffffffffffffffffffffffffffffffffffffffffffffffffffffffffffff001686151590811790915590519081529192917f17307eab39ab6107e8899845ad3d59bd9653f200f220920489ca2b5937696c31910160405180910390a35050565b610ec5858585610749565b73ffffffffffffffffffffffffffffffffffffffff84163b1580610fa757506040517f150b7a02000000000000000000000000000000000000000000000000000000008082529073ffffffffffffffffffffffffffffffffffffffff86169063150b7a0290610f409033908a90899089908990600401611c11565b6020604051808303816000875af1158015610f5f573d6000803e3d6000fd5b505050506040513d601f19601f82011682018060405250810190610f839190611b8d565b7fffffffff0000000000000000000000000000000000000000000000000000000016145b61100d576040517f08c379a000000000000000000000000000000000000000000000000000000000815260206004820152601060248201527f554e534146455f524543495049454e540000000000000000000000000000000060448201526064016106bf565b5050505050565b6060600061102183610c1c565b73ffffffffffffffffffffffffffffffffffffffff160361106e576040517fd872946b00000000000000000000000000000000000000000000000000000000815260040160405180910390fd5b6000604051806080016040528060528152602001611f316052913990506000604051806101c0016040528061018e8152602001611f8361018e91399050600060405180606001604052806039815260200161215160399139905060008383836040516020016110df93929190611c90565b6040516020818303038152906040529050600061112c6110fe8861146e565b611107846115ab565b604051602001611118929190611cd3565b6040516020818303038152906040526115ab565b90508060405160200161113f9190611dca565b60405160208183030381529060405295505050505050919050565b611162611211565b73ffffffffffffffffffffffffffffffffffffffff8116611205576040517f08c379a000000000000000000000000000000000000000000000000000000000815260206004820152602660248201527f4f776e61626c653a206e6577206f776e657220697320746865207a65726f206160448201527f646472657373000000000000000000000000000000000000000000000000000060648201526084016106bf565b61120e81611292565b50565b60065473ffffffffffffffffffffffffffffffffffffffff163314610d74576040517f08c379a000000000000000000000000000000000000000000000000000000000815260206004820181905260248201527f4f776e61626c653a2063616c6c6572206973206e6f7420746865206f776e657260448201526064016106bf565b6006805473ffffffffffffffffffffffffffffffffffffffff8381167fffffffffffffffffffffffff0000000000000000000000000000000000000000831681179093556040519116919082907f8be0079c531659141344cd1fd0a4f28419497f9722a3daafe3b4186f6b6457e090600090a35050565b61131382826116fe565b73ffffffffffffffffffffffffffffffffffffffff82163b158061140457506040517f150b7a0200000000000000000000000000000000000000000000000000000000808252336004830152600060248301819052604483018490526080606484015260848301529073ffffffffffffffffffffffffffffffffffffffff84169063150b7a029060a4016020604051808303816000875af11580156113bc573d6000803e3d6000fd5b505050506040513d601f19601f820116820180604052508101906113e09190611b8d565b7fffffffff0000000000000000000000000000000000000000000000000000000016145b61146a576040517f08c379a000000000000000000000000000000000000000000000000000000000815260206004820152601060248201527f554e534146455f524543495049454e540000000000000000000000000000000060448201526064016106bf565b5050565b6060816000036114b157505060408051808201909152600181527f3000000000000000000000000000000000000000000000000000000000000000602082015290565b8160005b81156114db57806114c581611bd9565b91506114d49050600a83611e3e565b91506114b5565b60008167ffffffffffffffff8111156114f6576114f6611e52565b6040519080825280601f01601f191660200182016040528015611520576020820181803683370190505b5090505b84156115a357611535600183611e81565b9150611542600a86611e98565b61154d906030611eac565b60f81b81838151811061156257611562611ec4565b60200101907effffffffffffffffffffffffffffffffffffffffffffffffffffffffffffff1916908160001a90535061159c600a86611e3e565b9450611524565b949350505050565b606081516000036115ca57505060408051602081019091526000815290565b600060405180606001604052806040815260200161211160409139905060006003845160026115f99190611eac565b6116039190611e3e565b61160e906004611ef3565b67ffffffffffffffff81111561162657611626611e52565b6040519080825280601f01601f191660200182016040528015611650576020820181803683370190505b509050600182016020820185865187015b808210156116bc576003820191508151603f8160121c168501518453600184019350603f81600c1c168501518453600184019350603f8160061c168501518453600184019350603f8116850151845350600183019250611661565b50506003865106600181146116d857600281146116eb576116f3565b603d6001830353603d60028303536116f3565b603d60018303535b509195945050505050565b73ffffffffffffffffffffffffffffffffffffffff821661177b576040517f08c379a000000000000000000000000000000000000000000000000000000000815260206004820152601160248201527f494e56414c49445f524543495049454e5400000000000000000000000000000060448201526064016106bf565b60008181526002602052604090205473ffffffffffffffffffffffffffffffffffffffff1615611807576040517f08c379a000000000000000000000000000000000000000000000000000000000815260206004820152600e60248201527f414c52454144595f4d494e54454400000000000000000000000000000000000060448201526064016106bf565b73ffffffffffffffffffffffffffffffffffffffff8216600081815260036020908152604080832080546001019055848352600290915280822080547fffffffffffffffffffffffff0000000000000000000000000000000000000000168417905551839291907fddf252ad1be2c89b69c2b068fc378daa952ba7f163c4a11628f55a4df523b3ef908290a45050565b7fffffffff000000000000000000000000000000000000000000000000000000008116811461120e57600080fd5b6000602082840312156118d757600080fd5b81356118e281611897565b9392505050565b60005b838110156119045781810151838201526020016118ec565b83811115611913576000848401525b50505050565b60208152600082518060208401526119388160408501602087016118e9565b601f017fffffffffffffffffffffffffffffffffffffffffffffffffffffffffffffffe0169190910160400192915050565b60006020828403121561197c57600080fd5b5035919050565b73ffffffffffffffffffffffffffffffffffffffff8116811461120e57600080fd5b600080604083850312156119b857600080fd5b82356119c381611983565b946020939093013593505050565b6000806000606084860312156119e657600080fd5b83356119f181611983565b92506020840135611a0181611983565b929592945050506040919091013590565b600060208284031215611a2457600080fd5b81356118e281611983565b60008060408385031215611a4257600080fd5b8235611a4d81611983565b915060208301358015158114611a6257600080fd5b809150509250929050565b600080600080600060808688031215611a8557600080fd5b8535611a9081611983565b94506020860135611aa081611983565b935060408601359250606086013567ffffffffffffffff80821115611ac457600080fd5b818801915088601f830112611ad857600080fd5b813581811115611ae757600080fd5b896020828501011115611af957600080fd5b9699959850939650602001949392505050565b60008060408385031215611b1f57600080fd5b8235611b2a81611983565b91506020830135611a6281611983565b600181811c90821680611b4e57607f821691505b602082108103611b87577f4e487b7100000000000000000000000000000000000000000000000000000000600052602260045260246000fd5b50919050565b600060208284031215611b9f57600080fd5b81516118e281611897565b7f4e487b7100000000000000000000000000000000000000000000000000000000600052601160045260246000fd5b60007fffffffffffffffffffffffffffffffffffffffffffffffffffffffffffffffff8203611c0a57611c0a611baa565b5060010190565b600073ffffffffffffffffffffffffffffffffffffffff808816835280871660208401525084604083015260806060830152826080830152828460a0840137600060a0848401015260a07fffffffffffffffffffffffffffffffffffffffffffffffffffffffffffffffe0601f85011683010190509695505050505050565b60008451611ca28184602089016118e9565b845190830190611cb68183602089016118e9565b8451910190611cc98183602088016118e9565b0195945050505050565b7f7b226e616d65223a20224e465420230000000000000000000000000000000000815260008351611d0b81600f8501602088016118e9565b7f222c20226465736372697074696f6e223a202254657374000000000000000000600f918401918201527f222c2022696d6167655f64617461223a2022646174613a696d6167652f73766760268201527f2b786d6c3b6261736536342c000000000000000000000000000000000000000060468201528351611d948160528401602088016118e9565b7f227d00000000000000000000000000000000000000000000000000000000000060529290910191820152605401949350505050565b7f646174613a6170706c69636174696f6e2f6a736f6e3b6261736536342c000000815260008251611e0281601d8501602087016118e9565b91909101601d0192915050565b7f4e487b7100000000000000000000000000000000000000000000000000000000600052601260045260246000fd5b600082611e4d57611e4d611e0f565b500490565b7f4e487b7100000000000000000000000000000000000000000000000000000000600052604160045260246000fd5b600082821015611e9357611e93611baa565b500390565b600082611ea757611ea7611e0f565b500690565b60008219821115611ebf57611ebf611baa565b500190565b7f4e487b7100000000000000000000000000000000000000000000000000000000600052603260045260246000fd5b6000817fffffffffffffffffffffffffffffffffffffffffffffffffffffffffffffffff0483118215151615611f2b57611f2b611baa565b50029056fe3c7376672076696577426f783d2230203020333530203335302220786d6c6e733d22687474703a2f2f7777772e77332e6f72672f323030302f737667223e3c7363726970743e2f2f3c215b43444154415b0a77696e646f772e6164644576656e744c697374656e65722822444f4d436f6e74656e744c6f61646564222c2828293d3e7b646f63756d656e742e717565727953656c6563746f722822636972636c6522292e6164644576656e744c697374656e65722822636c69636b222c28743d3e7b742e7461726765742e7374796c652e66696c6c3d66756e6374696f6e28297b636f6e737420743d4d6174682e726f756e64283235352a4d6174682e72616e646f6d2829292e746f537472696e67283136292e706164537461727428322c223022292c6e3d4d6174682e726f756e64283235352a4d6174682e72616e646f6d2829292e746f537472696e67283136292e706164537461727428322c223022292c723d4d6174682e726f756e64283235352a4d6174682e72616e646f6d2829292e746f537472696e67283136292e706164537461727428322c223022293b72657475726e2223222e636f6e63617428742e746f537472696e6728292c6e2e746f537472696e6728292c722e746f537472696e672829297d28297d29297d29293b4142434445464748494a4b4c4d4e4f505152535455565758595a6162636465666768696a6b6c6d6e6f707172737475767778797a303132333435363738392b2f0a2f2f205d5d3e3c2f7363726970743e3c636972636c652063783d22313735222063793d223137352220723d22313030222f3e3c2f7376673ea2646970667358221220b1e4d447055dfe8189e5316f89c06eb6957bcdbda6ad967a7900409d1b586c6c64736f6c634300080f0033",
    "linkReferences": {}
  },
  "methodIdentifiers": {
    "MINT_PRICE()": "c002d23d",
    "TOTAL_SUPPLY()": "902d55a5",
    "approve(address,uint256)": "095ea7b3",
    "balanceOf(address)": "70a08231",
    "baseURI()": "6c0360eb",
    "currentTokenId()": "009a9b7b",
    "getApproved(uint256)": "081812fc",
    "isApprovedForAll(address,address)": "e985e9c5",
    "mintTo(address)": "755edd17",
    "name()": "06fdde03",
    "owner()": "8da5cb5b",
    "ownerOf(uint256)": "6352211e",
    "renounceOwnership()": "715018a6",
    "safeTransferFrom(address,address,uint256)": "42842e0e",
    "safeTransferFrom(address,address,uint256,bytes)": "b88d4fde",
    "setApprovalForAll(address,bool)": "a22cb465",
    "supportsInterface(bytes4)": "01ffc9a7",
    "symbol()": "95d89b41",
    "tokenURI(uint256)": "c87b56dd",
    "transferFrom(address,address,uint256)": "23b872dd",
    "transferOwnership(address)": "f2fde38b",
    "withdrawPayments(address)": "31b3eb94"
  },
  "id": 13
}